{
  "contracts/CheeseChain.sol": {
    "CheeseChain": {
      "abi": [
        {
          "inputs": [],
          "stateMutability": "nonpayable",
          "type": "constructor"
        },
        {
          "anonymous": false,
          "inputs": [
            {
              "indexed": true,
              "internalType": "uint256",
              "name": "_lotId",
              "type": "uint256"
            },
            {
              "indexed": true,
              "internalType": "bool",
              "name": "_result",
              "type": "bool"
            },
            {
              "indexed": true,
              "internalType": "uint256",
              "name": "_timestamp",
              "type": "uint256"
            }
          ],
          "name": "LabResultAdded",
          "type": "event"
        },
        {
          "anonymous": false,
          "inputs": [
            {
              "indexed": true,
              "internalType": "uint256",
              "name": "_lotId",
              "type": "uint256"
            },
            {
              "indexed": false,
              "internalType": "uint256",
              "name": "_timestamp",
              "type": "uint256"
            }
          ],
          "name": "LotAdded",
          "type": "event"
        },
        {
          "anonymous": false,
          "inputs": [
            {
              "indexed": true,
              "internalType": "uint256",
              "name": "_milkBatchId",
              "type": "uint256"
            },
            {
              "indexed": false,
              "internalType": "uint256",
              "name": "_timestamp",
              "type": "uint256"
            }
          ],
          "name": "NewMilkBatch",
          "type": "event"
        },
        {
          "anonymous": false,
          "inputs": [
            {
              "components": [
                {
                  "internalType": "string",
                  "name": "name",
                  "type": "string"
                },
                {
                  "internalType": "enum CheeseChain.Role",
                  "name": "role",
                  "type": "uint8"
                },
                {
                  "internalType": "address",
                  "name": "owner",
                  "type": "address"
                }
              ],
              "indexed": false,
              "internalType": "struct CheeseChain.Participant",
              "name": "participant",
              "type": "tuple"
            }
          ],
          "name": "ParticipantAdded",
          "type": "event"
        },
        {
          "anonymous": false,
          "inputs": [
            {
              "components": [
                {
                  "internalType": "string",
                  "name": "name",
                  "type": "string"
                },
                {
                  "internalType": "enum CheeseChain.Role",
                  "name": "role",
                  "type": "uint8"
                },
                {
                  "internalType": "address",
                  "name": "owner",
                  "type": "address"
                }
              ],
              "indexed": false,
              "internalType": "struct CheeseChain.Participant",
              "name": "participant",
              "type": "tuple"
            }
          ],
          "name": "RoleChanged",
          "type": "event"
        },
        {
          "anonymous": false,
          "inputs": [
            {
              "indexed": true,
              "internalType": "uint256",
              "name": "_stepId",
              "type": "uint256"
            },
            {
              "indexed": false,
              "internalType": "uint256",
              "name": "_timestamp",
              "type": "uint256"
            }
          ],
          "name": "StepAdded",
          "type": "event"
        },
        {
          "inputs": [
            {
              "internalType": "uint256",
              "name": "lotNumber",
              "type": "uint256"
            },
            {
              "internalType": "bool",
              "name": "result",
              "type": "bool"
            }
          ],
          "name": "addLabResult",
          "outputs": [],
          "stateMutability": "nonpayable",
          "type": "function"
        },
        {
          "inputs": [
            {
              "internalType": "uint256[]",
              "name": "milkBatchIds",
              "type": "uint256[]"
            }
          ],
          "name": "addLot",
          "outputs": [],
          "stateMutability": "nonpayable",
          "type": "function"
        },
        {
          "inputs": [
            {
              "components": [
                {
                  "internalType": "string",
                  "name": "latitude",
                  "type": "string"
                },
                {
                  "internalType": "string",
                  "name": "longitude",
                  "type": "string"
                }
              ],
              "internalType": "struct CheeseChain.Coordinates",
              "name": "coordinates",
              "type": "tuple"
            }
          ],
          "name": "addMilkBatch",
          "outputs": [],
          "stateMutability": "nonpayable",
          "type": "function"
        },
        {
          "inputs": [
            {
              "components": [
                {
                  "internalType": "string",
                  "name": "name",
                  "type": "string"
                },
                {
                  "internalType": "enum CheeseChain.Role",
                  "name": "role",
                  "type": "uint8"
                },
                {
                  "internalType": "address",
                  "name": "owner",
                  "type": "address"
                }
              ],
              "internalType": "struct CheeseChain.Participant",
              "name": "participant",
              "type": "tuple"
            }
          ],
          "name": "addParticipant",
          "outputs": [],
          "stateMutability": "nonpayable",
          "type": "function"
        },
        {
          "inputs": [
            {
              "internalType": "uint256",
              "name": "lotNumber",
              "type": "uint256"
            },
            {
              "internalType": "string",
              "name": "description",
              "type": "string"
            },
            {
              "components": [
                {
                  "internalType": "string",
                  "name": "latitude",
                  "type": "string"
                },
                {
                  "internalType": "string",
                  "name": "longitude",
                  "type": "string"
                }
              ],
              "internalType": "struct CheeseChain.Coordinates",
              "name": "coordinates",
              "type": "tuple"
            }
          ],
          "name": "addStep",
          "outputs": [],
          "stateMutability": "nonpayable",
          "type": "function"
        },
        {
          "inputs": [],
          "name": "administrator",
          "outputs": [
            {
              "internalType": "address",
              "name": "",
              "type": "address"
            }
          ],
          "stateMutability": "view",
          "type": "function"
        },
        {
          "inputs": [
            {
              "internalType": "address",
              "name": "_address",
              "type": "address"
            },
            {
              "internalType": "enum CheeseChain.Role",
              "name": "_newRole",
              "type": "uint8"
            }
          ],
          "name": "changeParticipantRole",
          "outputs": [],
          "stateMutability": "nonpayable",
          "type": "function"
        },
        {
          "inputs": [
            {
              "internalType": "uint256",
              "name": "lotNumber",
              "type": "uint256"
            }
          ],
          "name": "getLot",
          "outputs": [
            {
              "components": [
                {
                  "components": [
                    {
                      "internalType": "bool",
                      "name": "result",
                      "type": "bool"
                    },
                    {
                      "internalType": "uint256",
                      "name": "timestamp",
                      "type": "uint256"
                    }
                  ],
                  "internalType": "struct CheeseChain.TestResult",
                  "name": "testResult",
                  "type": "tuple"
                },
                {
                  "internalType": "uint256",
                  "name": "lastStep",
                  "type": "uint256"
                },
                {
                  "internalType": "uint256",
                  "name": "timestamp",
                  "type": "uint256"
                },
                {
                  "internalType": "uint256[]",
                  "name": "milkBatchId",
                  "type": "uint256[]"
                }
              ],
              "internalType": "struct CheeseChain.Lot",
              "name": "",
              "type": "tuple"
            }
          ],
          "stateMutability": "view",
          "type": "function"
        },
        {
          "inputs": [
            {
              "internalType": "address",
              "name": "_address",
              "type": "address"
            }
          ],
          "name": "isAdministrator",
          "outputs": [
            {
              "internalType": "bool",
              "name": "",
              "type": "bool"
            }
          ],
          "stateMutability": "view",
          "type": "function"
        },
        {
          "inputs": [
            {
              "internalType": "address",
              "name": "_address",
              "type": "address"
            }
          ],
          "name": "isBasicParticipant",
          "outputs": [
            {
              "internalType": "bool",
              "name": "",
              "type": "bool"
            }
          ],
          "stateMutability": "view",
          "type": "function"
        },
        {
          "inputs": [
            {
              "internalType": "address",
              "name": "_address",
              "type": "address"
            }
          ],
          "name": "isLaboratory",
          "outputs": [
            {
              "internalType": "bool",
              "name": "",
              "type": "bool"
            }
          ],
          "stateMutability": "view",
          "type": "function"
        },
        {
          "inputs": [
            {
              "internalType": "address",
              "name": "_address",
              "type": "address"
            }
          ],
          "name": "isMilkProducer",
          "outputs": [
            {
              "internalType": "bool",
              "name": "",
              "type": "bool"
            }
          ],
          "stateMutability": "view",
          "type": "function"
        },
        {
          "inputs": [
            {
              "internalType": "uint256",
              "name": "",
              "type": "uint256"
            }
          ],
          "name": "lots",
          "outputs": [
            {
              "components": [
                {
                  "internalType": "bool",
                  "name": "result",
                  "type": "bool"
                },
                {
                  "internalType": "uint256",
                  "name": "timestamp",
                  "type": "uint256"
                }
              ],
              "internalType": "struct CheeseChain.TestResult",
              "name": "testResult",
              "type": "tuple"
            },
            {
              "internalType": "uint256",
              "name": "lastStep",
              "type": "uint256"
            },
            {
              "internalType": "uint256",
              "name": "timestamp",
              "type": "uint256"
            }
          ],
          "stateMutability": "view",
          "type": "function"
        },
        {
          "inputs": [
            {
              "internalType": "uint256",
              "name": "",
              "type": "uint256"
            }
          ],
          "name": "milkBatches",
          "outputs": [
            {
              "internalType": "uint256",
              "name": "timestamp",
              "type": "uint256"
            },
            {
              "internalType": "address",
              "name": "owner",
              "type": "address"
            },
            {
              "components": [
                {
                  "internalType": "string",
                  "name": "latitude",
                  "type": "string"
                },
                {
                  "internalType": "string",
                  "name": "longitude",
                  "type": "string"
                }
              ],
              "internalType": "struct CheeseChain.Coordinates",
              "name": "coordinates",
              "type": "tuple"
            }
          ],
          "stateMutability": "view",
          "type": "function"
        },
        {
          "inputs": [
            {
              "internalType": "address",
              "name": "",
              "type": "address"
            }
          ],
          "name": "participants",
          "outputs": [
            {
              "internalType": "string",
              "name": "name",
              "type": "string"
            },
            {
              "internalType": "enum CheeseChain.Role",
              "name": "role",
              "type": "uint8"
            },
            {
              "internalType": "address",
              "name": "owner",
              "type": "address"
            }
          ],
          "stateMutability": "view",
          "type": "function"
        },
        {
          "inputs": [
            {
              "internalType": "address",
              "name": "_address",
              "type": "address"
            }
          ],
          "name": "removeParticipant",
          "outputs": [],
          "stateMutability": "nonpayable",
          "type": "function"
        },
        {
          "inputs": [
            {
              "internalType": "uint256",
              "name": "",
              "type": "uint256"
            }
          ],
          "name": "steps",
          "outputs": [
            {
              "internalType": "address",
              "name": "owner",
              "type": "address"
            },
            {
              "internalType": "uint256",
              "name": "previousStep",
              "type": "uint256"
            },
            {
              "internalType": "uint256",
              "name": "timestamp",
              "type": "uint256"
            },
            {
              "internalType": "string",
              "name": "description",
              "type": "string"
            },
            {
              "components": [
                {
                  "internalType": "string",
                  "name": "latitude",
                  "type": "string"
                },
                {
                  "internalType": "string",
                  "name": "longitude",
                  "type": "string"
                }
              ],
              "internalType": "struct CheeseChain.Coordinates",
              "name": "coordinates",
              "type": "tuple"
            }
          ],
          "stateMutability": "view",
          "type": "function"
        },
        {
          "inputs": [],
          "name": "totalBatches",
          "outputs": [
            {
              "internalType": "uint256",
              "name": "",
              "type": "uint256"
            }
          ],
          "stateMutability": "view",
          "type": "function"
        },
        {
          "inputs": [],
          "name": "totalLots",
          "outputs": [
            {
              "internalType": "uint256",
              "name": "",
              "type": "uint256"
            }
          ],
          "stateMutability": "view",
          "type": "function"
        },
        {
          "inputs": [],
          "name": "totalSteps",
          "outputs": [
            {
              "internalType": "uint256",
              "name": "",
              "type": "uint256"
            }
          ],
          "stateMutability": "view",
          "type": "function"
        }
      ],
      "evm": {
        "bytecode": {
          "linkReferences": {},
          "object": "608060405234801561001057600080fd5b50600280546001600160a01b03191633179055611e4b806100326000396000f3fe608060405234801561001057600080fd5b506004361061012c5760003560e01c806369ff6abb116100ad578063cf23b37711610071578063cf23b377146102a4578063dfc2e251146102b7578063e7970342146102ca578063f1648e84146102dd578063f53d0a8e1461035257600080fd5b806369ff6abb146102315780637217e0b91461023a578063ab995d121461025e578063bab5e3d51461027e578063c0e045391461029157600080fd5b8063360f277b116100f4578063360f277b146101c95780634e266aea146101e0578063633342fe14610202578063668a2001146102155780636931b3ae1461022857600080fd5b806309e69ede146101315780630a2eb3011461015c578063277065841461018e5780632a83aada146101a15780632f9d3afb146101b4575b600080fd5b61014461013f36600461151e565b61037d565b60405161015393929190611826565b60405180910390f35b61017e61016a36600461151e565b6002546001600160a01b0391821691161490565b6040519015158152602001610153565b61017e61019c36600461151e565b610435565b61017e6101af36600461151e565b61047f565b6101c76101c236600461169c565b610488565b005b6101d260015481565b604051908152602001610153565b6101f36101ee36600461165c565b6106e3565b60405161015393929190611acb565b61017e61021036600461151e565b61083d565b6101c761022336600461151e565b610846565b6101d260005481565b6101d260065481565b61024d61024836600461165c565b6108eb565b6040516101539594939291906117db565b61027161026c36600461165c565b610add565b60405161015391906118fa565b6101c761028c3660046115e9565b610baf565b6101c761029f366004611541565b610d24565b6101c76102b2366004611579565b610e31565b6101c76102c5366004611624565b6110e5565b6101c76102d8366004611674565b611281565b6103286102eb36600461165c565b6004602090815260009182526040918290208251808401909352805460ff1615158352600181015491830191909152600281015460039091015483565b60408051845115158152602094850151948101949094528301919091526060820152608001610153565b600254610365906001600160a01b031681565b6040516001600160a01b039091168152602001610153565b60056020526000908152604090208054819061039890611ba9565b80601f01602080910402602001604051908101604052809291908181526020018280546103c490611ba9565b80156104115780601f106103e657610100808354040283529160200191610411565b820191906000526020600020905b8154815290600101906020018083116103f457829003601f168201915b5050506001909301549192505060ff8116906001600160a01b036101009091041683565b600060025b6001600160a01b03831660009081526005602052604090206001015460ff16600381111561047857634e487b7160e01b600052602160045260246000fd5b1492915050565b6000600161043a565b6002546001600160a01b03163314806104a557506104a53361047f565b6104f65760405162461bcd60e51b815260206004820181905260248201527f4d73672e73656e646572206973206e6f74206261736963206f722061646d696e60448201526064015b60405180910390fd5b600084815260046020526040902060030154849061056c5760405162461bcd60e51b815260206004820152602d60248201527f546865206c6f7420776974682074686520676976656e206e756d62657220646f60448201526c6573206e6f742065786973742160981b60648201526084016104ed565b600160008082825461057e9190611af5565b90915550506040805160a08101825233815260008781526004602090815290839020600201548183015242828401528251601f87018290048202810182019093528583529091606083019187908790819084018382808284376000920191909152505050908252506020016105f284611b26565b905260008054815260036020818152604092839020845181546001600160a01b0319166001600160a01b039091161781558482015160018201559284015160028401556060840151805161064d938501929190910190611355565b50608082015180518051600484019161066b91839160200190611355565b5060208281015180516106849260018501920190611355565b505060008054898252600460205260409182902060020181905590519093507fec445c04d22149c0897018b599bfbffbbcf13b30a4da88d37e30ee6df86d6b2492506106d4915042815260200190565b60405180910390a25050505050565b6007602052600090815260409081902080546001820154835180850190945260028301805492946001600160a01b0390921693928290829061072490611ba9565b80601f016020809104026020016040519081016040528092919081815260200182805461075090611ba9565b801561079d5780601f106107725761010080835404028352916020019161079d565b820191906000526020600020905b81548152906001019060200180831161078057829003601f168201915b505050505081526020016001820180546107b690611ba9565b80601f01602080910402602001604051908101604052809291908181526020018280546107e290611ba9565b801561082f5780601f106108045761010080835404028352916020019161082f565b820191906000526020600020905b81548152906001019060200180831161081257829003601f168201915b505050505081525050905083565b6000600361043a565b6002546001600160a01b031633146108705760405162461bcd60e51b81526004016104ed90611861565b6001600160a01b038082166000908152600560205260409020600101548291610100909104166108b25760405162461bcd60e51b81526004016104ed906118ac565b6001600160a01b0382166000908152600560205260408120906108d582826113d9565b5060010180546001600160a81b03191690555050565b600360208190526000918252604090912080546001820154600283015493830180546001600160a01b03909316949193919261092690611ba9565b80601f016020809104026020016040519081016040528092919081815260200182805461095290611ba9565b801561099f5780601f106109745761010080835404028352916020019161099f565b820191906000526020600020905b81548152906001019060200180831161098257829003601f168201915b505050505090806004016040518060400160405290816000820180546109c490611ba9565b80601f01602080910402602001604051908101604052809291908181526020018280546109f090611ba9565b8015610a3d5780601f10610a1257610100808354040283529160200191610a3d565b820191906000526020600020905b815481529060010190602001808311610a2057829003601f168201915b50505050508152602001600182018054610a5690611ba9565b80601f0160208091040260200160405190810160405280929190818152602001828054610a8290611ba9565b8015610acf5780601f10610aa457610100808354040283529160200191610acf565b820191906000526020600020905b815481529060010190602001808311610ab257829003601f168201915b505050505081525050905085565b6040805160c08101825260006080820181815260a0830182905282526020820181905291810191909152606080820152600082815260046020818152604092839020835160c081018552815460ff16151560808201908152600183015460a083015281526002820154818401526003820154818601529281018054855181850281018501909652808652939491936060860193830182828015610b9f57602002820191906000526020600020905b815481526020019060010190808311610b8b575b5050505050815250509050919050565b6002546001600160a01b0316331480610bcc5750610bcc3361083d565b610c335760405162461bcd60e51b815260206004820152603260248201527f546869732066756e6374696f6e206973206f6e6c792063616c6c61626c652062604482015271792061206d696c6b2070726f64756365722160701b60648201526084016104ed565b600160066000828254610c469190611af5565b909155505060408051606081018252428152336020820152908101610c6a83611b26565b905260065460009081526007602090815260409182902083518155838201516001820180546001600160a01b0319166001600160a01b03909216919091179055918301518051805191926002850192610cc69284920190611355565b506020828101518051610cdf9260018501920190611355565b5050509050506006547f1ed9a7a467facf402d310bfed1dcb9abef3674e796e5ca5d19071da6246ec90842604051610d1991815260200190565b60405180910390a250565b6002546001600160a01b03163314610d4e5760405162461bcd60e51b81526004016104ed90611861565b6001600160a01b03808316600090815260056020526040902060010154839161010090910416610d905760405162461bcd60e51b81526004016104ed906118ac565b6001600160a01b038316600090815260056020526040902060019081018054849260ff1990911690836003811115610dd857634e487b7160e01b600052602160045260246000fd5b02179055506001600160a01b0383166000908152600560205260409081902090517fff2d2d00dec063c036ff49fb55b1bf52d819c4c61dd7f8805b15f51d1809028491610e2491611a1f565b60405180910390a1505050565b6002546001600160a01b0316331480610e4e5750610e4e3361047f565b610e9a5760405162461bcd60e51b815260206004820181905260248201527f4d73672e73656e646572206973206e6f74206261736963206f722061646d696e60448201526064016104ed565b818180610f045760405162461bcd60e51b815260206004820152603260248201527f506c656173652070726f76696465206174206c65617374206f6e65206d696c6b604482015271206261746368206964656e7469666965722160701b60648201526084016104ed565b60005b81811015610fca5760076000848484818110610f3357634e487b7160e01b600052603260045260246000fd5b9050602002013581526020019081526020016000206000015460001415610fb85760405162461bcd60e51b815260206004820152603360248201527f506c656173652070726f76696465206f6e6c79206578697374696e67206d696c6044820152726b206261746368206964656e7469666965727360681b60648201526084016104ed565b80610fc281611bde565b915050610f07565b506001806000828254610fdd9190611af5565b92505081905550600060405180604001604052806000151581526020016000815250905060405180608001604052808281526020016000815260200142815260200186868080602002602001604051908101604052809392919081815260200183836020028082843760009201829052509390945250506001805482526004602081815260409384902086518051825460ff191690151517825582015193810193909355858101516002840155928501516003830155606085015180519294506110ad9391850192910190611416565b509050506001547f0bed61055f62b96d21f771dedadfcf299cb70edf954dcd0c73c73e5ef16655e5426040516106d491815260200190565b6002546001600160a01b0316331461110f5760405162461bcd60e51b81526004016104ed90611861565b61111f606082016040830161151e565b6001600160a01b0381166111805760405162461bcd60e51b815260206004820152602260248201527f54686520616464726573732063616e6e6f742062652061203020616464726573604482015261732160f01b60648201526084016104ed565b611190606083016040840161151e565b6001600160a01b03818116600090815260056020526040902060010154610100900416156112175760405162461bcd60e51b815260206004820152602e60248201527f41207061727469636970616e742077697468207468697320616464726573732060448201526d65786973747320616c726561647960901b60648201526084016104ed565b826005600061122c606084016040850161151e565b6001600160a01b03168152602081019190915260400160002061124f8282611c76565b9050507fef9377c241485790a66c08be6e52dff1ad726099e0467fb606578787de7941e383604051610e249190611974565b6002546001600160a01b031633148061129e575061129e33610435565b6112ea5760405162461bcd60e51b815260206004820152601e60248201527f4d73672e73656e646572206973206e6f74206c6162206f722061646d696e000060448201526064016104ed565b604080518082018252821515808252426020808401828152600088815260049092528582209451855460ff1916901515178555516001909401939093559251909185917ff77d5f9755b6151104d42d1008bf3453a129d0642c72a499f7b38cb68416a6199190a45050565b82805461136190611ba9565b90600052602060002090601f01602090048101928261138357600085556113c9565b82601f1061139c57805160ff19168380011785556113c9565b828001600101855582156113c9579182015b828111156113c95782518255916020019190600101906113ae565b506113d5929150611450565b5090565b5080546113e590611ba9565b6000825580601f106113f5575050565b601f0160209004906000526020600020908101906114139190611450565b50565b8280548282559060005260206000209081019282156113c957916020028201828111156113c95782518255916020019190600101906113ae565b5b808211156113d55760008155600101611451565b803561147081611df3565b919050565b803561147081611e08565b600082601f830112611490578081fd5b813567ffffffffffffffff808211156114ab576114ab611c0f565b604051601f8301601f19908116603f011681019082821181831017156114d3576114d3611c0f565b816040528381528660208588010111156114eb578485fd5b8360208701602083013792830160200193909352509392505050565b600060408284031215611518578081fd5b50919050565b60006020828403121561152f578081fd5b813561153a81611df3565b9392505050565b60008060408385031215611553578081fd5b823561155e81611df3565b9150602083013561156e81611e08565b809150509250929050565b6000806020838503121561158b578182fd5b823567ffffffffffffffff808211156115a2578384fd5b818501915085601f8301126115b5578384fd5b8135818111156115c3578485fd5b8660208260051b85010111156115d7578485fd5b60209290920196919550909350505050565b6000602082840312156115fa578081fd5b813567ffffffffffffffff811115611610578182fd5b61161c84828501611507565b949350505050565b600060208284031215611635578081fd5b813567ffffffffffffffff81111561164b578182fd5b82016060818503121561153a578182fd5b60006020828403121561166d578081fd5b5035919050565b60008060408385031215611686578182fd5b823591506020830135801515811461156e578182fd5b600080600080606085870312156116b1578182fd5b84359350602085013567ffffffffffffffff808211156116cf578384fd5b818701915087601f8301126116e2578384fd5b8135818111156116f0578485fd5b886020828501011115611701578485fd5b60208301955080945050604087013591508082111561171e578283fd5b5061172b87828801611507565b91505092959194509250565b6004811061175557634e487b7160e01b600052602160045260246000fd5b9052565b60008151808452815b8181101561177e57602081850181015186830182015201611762565b8181111561178f5782602083870101525b50601f01601f19169290920160200192915050565b60008151604084526117b96040850182611759565b9050602083015184820360208601526117d28282611759565b95945050505050565b60018060a01b038616815284602082015283604082015260a06060820152600061180860a0830185611759565b828103608084015261181a81856117a4565b98975050505050505050565b6060815260006118396060830186611759565b90506118486020830185611737565b6001600160a01b03929092166040919091015292915050565b6020808252602b908201527f546869732066756e6374696f6e206973206f6e6c792063616c6c61626c65206260408201526a7920616e2061646d696e2160a81b606082015260800190565b6020808252602e908201527f41207061727469636970616e742077697468207468697320616464726573732060408201526d191bd95cc81b9bdd08195e1a5cdd60921b606082015260800190565b602080825282518051151583830152810151604083015260009060c08301848201516060858101919091526040860151608086015285015160a080860152805191829052820190839060e08601905b808310156119695783518252928401926001929092019190840190611949565b509695505050505050565b6020815260008235601e1984360301811261198d578182fd5b8301803567ffffffffffffffff8111156119a5578283fd5b8036038513156119b3578283fd5b60606020850152806080850152806020830160a08601378260a082860101526119de60208601611475565b91506119ed6040850183611737565b6119f960408601611465565b6001600160a01b03811660608601529150601f01601f19169290920160a0019392505050565b60006020808352606081840152818454611a3881611ba9565b80608087015260a0600180841660008114611a5a5760018114611a6e57611a99565b60ff1985168984015260c089019550611a99565b898852868820885b85811015611a915781548b8201860152908301908801611a76565b8a0184019650505b508801549450611ab3925050506040850160ff8416611737565b6001600160a01b03600883901c16606085015261161c565b8381526001600160a01b03831660208201526060604082018190526000906117d2908301846117a4565b60008219821115611b0857611b08611bf9565b500190565b5b81811015611b225760008155600101611b0e565b5050565b600060408236031215611b37578081fd5b6040516040810167ffffffffffffffff8282108183111715611b5b57611b5b611c0f565b816040528435915080821115611b6f578384fd5b611b7b36838701611480565b83526020850135915080821115611b90578384fd5b50611b9d36828601611480565b60208301525092915050565b600181811c90821680611bbd57607f821691505b6020821081141561151857634e487b7160e01b600052602260045260246000fd5b6000600019821415611bf257611bf2611bf9565b5060010190565b634e487b7160e01b600052601160045260246000fd5b634e487b7160e01b600052604160045260246000fd5b60008135611c3281611df3565b92915050565b60008135611c3281611e08565b60048210611c6357634e487b7160e01b600052602160045260246000fd5b60ff1981541660ff831681178255505050565b8135601e19833603018112611c8a57600080fd5b8201803567ffffffffffffffff811115611ca357600080fd5b60208136038184011315611cb657600080fd5b611cc08454611ba9565b600080601f8511601f841181811715611cdf5760008981526020902092505b8015611d0d57601f870160051c830186881015611cf95750825b611d0b601f870160051c850182611b0d565b505b508060018114611d4357600094508615611d2a5785848901013594505b600187901b600019600389901b1c198616178955611d98565b601f198716945082845b86811015611d6e578986018801358255948701946001909101908701611d4d565b5087861015611d8d5760001960f88960031b161c1987868b0101351681555b5060018760011b0189555b5050505050600184019250611db7611db1828701611c38565b84611c45565b5050611dee611dc860408501611c25565b828054610100600160a81b03191660089290921b610100600160a81b0316919091179055565b505050565b6001600160a01b038116811461141357600080fd5b6004811061141357600080fdfea2646970667358221220f4d0c37f002004dd0db2f1f2a2e76492b1c0ccce559e7706c2ee393cfe4c1a5b64736f6c63430008040033",
          "opcodes": "PUSH1 0x80 PUSH1 0x40 MSTORE CALLVALUE DUP1 ISZERO PUSH2 0x10 JUMPI PUSH1 0x0 DUP1 REVERT JUMPDEST POP PUSH1 0x2 DUP1 SLOAD PUSH1 0x1 PUSH1 0x1 PUSH1 0xA0 SHL SUB NOT AND CALLER OR SWAP1 SSTORE PUSH2 0x1E4B DUP1 PUSH2 0x32 PUSH1 0x0 CODECOPY PUSH1 0x0 RETURN INVALID PUSH1 0x80 PUSH1 0x40 MSTORE CALLVALUE DUP1 ISZERO PUSH2 0x10 JUMPI PUSH1 0x0 DUP1 REVERT JUMPDEST POP PUSH1 0x4 CALLDATASIZE LT PUSH2 0x12C JUMPI PUSH1 0x0 CALLDATALOAD PUSH1 0xE0 SHR DUP1 PUSH4 0x69FF6ABB GT PUSH2 0xAD JUMPI DUP1 PUSH4 0xCF23B377 GT PUSH2 0x71 JUMPI DUP1 PUSH4 0xCF23B377 EQ PUSH2 0x2A4 JUMPI DUP1 PUSH4 0xDFC2E251 EQ PUSH2 0x2B7 JUMPI DUP1 PUSH4 0xE7970342 EQ PUSH2 0x2CA JUMPI DUP1 PUSH4 0xF1648E84 EQ PUSH2 0x2DD JUMPI DUP1 PUSH4 0xF53D0A8E EQ PUSH2 0x352 JUMPI PUSH1 0x0 DUP1 REVERT JUMPDEST DUP1 PUSH4 0x69FF6ABB EQ PUSH2 0x231 JUMPI DUP1 PUSH4 0x7217E0B9 EQ PUSH2 0x23A JUMPI DUP1 PUSH4 0xAB995D12 EQ PUSH2 0x25E JUMPI DUP1 PUSH4 0xBAB5E3D5 EQ PUSH2 0x27E JUMPI DUP1 PUSH4 0xC0E04539 EQ PUSH2 0x291 JUMPI PUSH1 0x0 DUP1 REVERT JUMPDEST DUP1 PUSH4 0x360F277B GT PUSH2 0xF4 JUMPI DUP1 PUSH4 0x360F277B EQ PUSH2 0x1C9 JUMPI DUP1 PUSH4 0x4E266AEA EQ PUSH2 0x1E0 JUMPI DUP1 PUSH4 0x633342FE EQ PUSH2 0x202 JUMPI DUP1 PUSH4 0x668A2001 EQ PUSH2 0x215 JUMPI DUP1 PUSH4 0x6931B3AE EQ PUSH2 0x228 JUMPI PUSH1 0x0 DUP1 REVERT JUMPDEST DUP1 PUSH4 0x9E69EDE EQ PUSH2 0x131 JUMPI DUP1 PUSH4 0xA2EB301 EQ PUSH2 0x15C JUMPI DUP1 PUSH4 0x27706584 EQ PUSH2 0x18E JUMPI DUP1 PUSH4 0x2A83AADA EQ PUSH2 0x1A1 JUMPI DUP1 PUSH4 0x2F9D3AFB EQ PUSH2 0x1B4 JUMPI JUMPDEST PUSH1 0x0 DUP1 REVERT JUMPDEST PUSH2 0x144 PUSH2 0x13F CALLDATASIZE PUSH1 0x4 PUSH2 0x151E JUMP JUMPDEST PUSH2 0x37D JUMP JUMPDEST PUSH1 0x40 MLOAD PUSH2 0x153 SWAP4 SWAP3 SWAP2 SWAP1 PUSH2 0x1826 JUMP JUMPDEST PUSH1 0x40 MLOAD DUP1 SWAP2 SUB SWAP1 RETURN JUMPDEST PUSH2 0x17E PUSH2 0x16A CALLDATASIZE PUSH1 0x4 PUSH2 0x151E JUMP JUMPDEST PUSH1 0x2 SLOAD PUSH1 0x1 PUSH1 0x1 PUSH1 0xA0 SHL SUB SWAP2 DUP3 AND SWAP2 AND EQ SWAP1 JUMP JUMPDEST PUSH1 0x40 MLOAD SWAP1 ISZERO ISZERO DUP2 MSTORE PUSH1 0x20 ADD PUSH2 0x153 JUMP JUMPDEST PUSH2 0x17E PUSH2 0x19C CALLDATASIZE PUSH1 0x4 PUSH2 0x151E JUMP JUMPDEST PUSH2 0x435 JUMP JUMPDEST PUSH2 0x17E PUSH2 0x1AF CALLDATASIZE PUSH1 0x4 PUSH2 0x151E JUMP JUMPDEST PUSH2 0x47F JUMP JUMPDEST PUSH2 0x1C7 PUSH2 0x1C2 CALLDATASIZE PUSH1 0x4 PUSH2 0x169C JUMP JUMPDEST PUSH2 0x488 JUMP JUMPDEST STOP JUMPDEST PUSH2 0x1D2 PUSH1 0x1 SLOAD DUP2 JUMP JUMPDEST PUSH1 0x40 MLOAD SWAP1 DUP2 MSTORE PUSH1 0x20 ADD PUSH2 0x153 JUMP JUMPDEST PUSH2 0x1F3 PUSH2 0x1EE CALLDATASIZE PUSH1 0x4 PUSH2 0x165C JUMP JUMPDEST PUSH2 0x6E3 JUMP JUMPDEST PUSH1 0x40 MLOAD PUSH2 0x153 SWAP4 SWAP3 SWAP2 SWAP1 PUSH2 0x1ACB JUMP JUMPDEST PUSH2 0x17E PUSH2 0x210 CALLDATASIZE PUSH1 0x4 PUSH2 0x151E JUMP JUMPDEST PUSH2 0x83D JUMP JUMPDEST PUSH2 0x1C7 PUSH2 0x223 CALLDATASIZE PUSH1 0x4 PUSH2 0x151E JUMP JUMPDEST PUSH2 0x846 JUMP JUMPDEST PUSH2 0x1D2 PUSH1 0x0 SLOAD DUP2 JUMP JUMPDEST PUSH2 0x1D2 PUSH1 0x6 SLOAD DUP2 JUMP JUMPDEST PUSH2 0x24D PUSH2 0x248 CALLDATASIZE PUSH1 0x4 PUSH2 0x165C JUMP JUMPDEST PUSH2 0x8EB JUMP JUMPDEST PUSH1 0x40 MLOAD PUSH2 0x153 SWAP6 SWAP5 SWAP4 SWAP3 SWAP2 SWAP1 PUSH2 0x17DB JUMP JUMPDEST PUSH2 0x271 PUSH2 0x26C CALLDATASIZE PUSH1 0x4 PUSH2 0x165C JUMP JUMPDEST PUSH2 0xADD JUMP JUMPDEST PUSH1 0x40 MLOAD PUSH2 0x153 SWAP2 SWAP1 PUSH2 0x18FA JUMP JUMPDEST PUSH2 0x1C7 PUSH2 0x28C CALLDATASIZE PUSH1 0x4 PUSH2 0x15E9 JUMP JUMPDEST PUSH2 0xBAF JUMP JUMPDEST PUSH2 0x1C7 PUSH2 0x29F CALLDATASIZE PUSH1 0x4 PUSH2 0x1541 JUMP JUMPDEST PUSH2 0xD24 JUMP JUMPDEST PUSH2 0x1C7 PUSH2 0x2B2 CALLDATASIZE PUSH1 0x4 PUSH2 0x1579 JUMP JUMPDEST PUSH2 0xE31 JUMP JUMPDEST PUSH2 0x1C7 PUSH2 0x2C5 CALLDATASIZE PUSH1 0x4 PUSH2 0x1624 JUMP JUMPDEST PUSH2 0x10E5 JUMP JUMPDEST PUSH2 0x1C7 PUSH2 0x2D8 CALLDATASIZE PUSH1 0x4 PUSH2 0x1674 JUMP JUMPDEST PUSH2 0x1281 JUMP JUMPDEST PUSH2 0x328 PUSH2 0x2EB CALLDATASIZE PUSH1 0x4 PUSH2 0x165C JUMP JUMPDEST PUSH1 0x4 PUSH1 0x20 SWAP1 DUP2 MSTORE PUSH1 0x0 SWAP2 DUP3 MSTORE PUSH1 0x40 SWAP2 DUP3 SWAP1 KECCAK256 DUP3 MLOAD DUP1 DUP5 ADD SWAP1 SWAP4 MSTORE DUP1 SLOAD PUSH1 0xFF AND ISZERO ISZERO DUP4 MSTORE PUSH1 0x1 DUP2 ADD SLOAD SWAP2 DUP4 ADD SWAP2 SWAP1 SWAP2 MSTORE PUSH1 0x2 DUP2 ADD SLOAD PUSH1 0x3 SWAP1 SWAP2 ADD SLOAD DUP4 JUMP JUMPDEST PUSH1 0x40 DUP1 MLOAD DUP5 MLOAD ISZERO ISZERO DUP2 MSTORE PUSH1 0x20 SWAP5 DUP6 ADD MLOAD SWAP5 DUP2 ADD SWAP5 SWAP1 SWAP5 MSTORE DUP4 ADD SWAP2 SWAP1 SWAP2 MSTORE PUSH1 0x60 DUP3 ADD MSTORE PUSH1 0x80 ADD PUSH2 0x153 JUMP JUMPDEST PUSH1 0x2 SLOAD PUSH2 0x365 SWAP1 PUSH1 0x1 PUSH1 0x1 PUSH1 0xA0 SHL SUB AND DUP2 JUMP JUMPDEST PUSH1 0x40 MLOAD PUSH1 0x1 PUSH1 0x1 PUSH1 0xA0 SHL SUB SWAP1 SWAP2 AND DUP2 MSTORE PUSH1 0x20 ADD PUSH2 0x153 JUMP JUMPDEST PUSH1 0x5 PUSH1 0x20 MSTORE PUSH1 0x0 SWAP1 DUP2 MSTORE PUSH1 0x40 SWAP1 KECCAK256 DUP1 SLOAD DUP2 SWAP1 PUSH2 0x398 SWAP1 PUSH2 0x1BA9 JUMP JUMPDEST DUP1 PUSH1 0x1F ADD PUSH1 0x20 DUP1 SWAP2 DIV MUL PUSH1 0x20 ADD PUSH1 0x40 MLOAD SWAP1 DUP2 ADD PUSH1 0x40 MSTORE DUP1 SWAP3 SWAP2 SWAP1 DUP2 DUP2 MSTORE PUSH1 0x20 ADD DUP3 DUP1 SLOAD PUSH2 0x3C4 SWAP1 PUSH2 0x1BA9 JUMP JUMPDEST DUP1 ISZERO PUSH2 0x411 JUMPI DUP1 PUSH1 0x1F LT PUSH2 0x3E6 JUMPI PUSH2 0x100 DUP1 DUP4 SLOAD DIV MUL DUP4 MSTORE SWAP2 PUSH1 0x20 ADD SWAP2 PUSH2 0x411 JUMP JUMPDEST DUP3 ADD SWAP2 SWAP1 PUSH1 0x0 MSTORE PUSH1 0x20 PUSH1 0x0 KECCAK256 SWAP1 JUMPDEST DUP2 SLOAD DUP2 MSTORE SWAP1 PUSH1 0x1 ADD SWAP1 PUSH1 0x20 ADD DUP1 DUP4 GT PUSH2 0x3F4 JUMPI DUP3 SWAP1 SUB PUSH1 0x1F AND DUP3 ADD SWAP2 JUMPDEST POP POP POP PUSH1 0x1 SWAP1 SWAP4 ADD SLOAD SWAP2 SWAP3 POP POP PUSH1 0xFF DUP2 AND SWAP1 PUSH1 0x1 PUSH1 0x1 PUSH1 0xA0 SHL SUB PUSH2 0x100 SWAP1 SWAP2 DIV AND DUP4 JUMP JUMPDEST PUSH1 0x0 PUSH1 0x2 JUMPDEST PUSH1 0x1 PUSH1 0x1 PUSH1 0xA0 SHL SUB DUP4 AND PUSH1 0x0 SWAP1 DUP2 MSTORE PUSH1 0x5 PUSH1 0x20 MSTORE PUSH1 0x40 SWAP1 KECCAK256 PUSH1 0x1 ADD SLOAD PUSH1 0xFF AND PUSH1 0x3 DUP2 GT ISZERO PUSH2 0x478 JUMPI PUSH4 0x4E487B71 PUSH1 0xE0 SHL PUSH1 0x0 MSTORE PUSH1 0x21 PUSH1 0x4 MSTORE PUSH1 0x24 PUSH1 0x0 REVERT JUMPDEST EQ SWAP3 SWAP2 POP POP JUMP JUMPDEST PUSH1 0x0 PUSH1 0x1 PUSH2 0x43A JUMP JUMPDEST PUSH1 0x2 SLOAD PUSH1 0x1 PUSH1 0x1 PUSH1 0xA0 SHL SUB AND CALLER EQ DUP1 PUSH2 0x4A5 JUMPI POP PUSH2 0x4A5 CALLER PUSH2 0x47F JUMP JUMPDEST PUSH2 0x4F6 JUMPI PUSH1 0x40 MLOAD PUSH3 0x461BCD PUSH1 0xE5 SHL DUP2 MSTORE PUSH1 0x20 PUSH1 0x4 DUP3 ADD DUP2 SWAP1 MSTORE PUSH1 0x24 DUP3 ADD MSTORE PUSH32 0x4D73672E73656E646572206973206E6F74206261736963206F722061646D696E PUSH1 0x44 DUP3 ADD MSTORE PUSH1 0x64 ADD JUMPDEST PUSH1 0x40 MLOAD DUP1 SWAP2 SUB SWAP1 REVERT JUMPDEST PUSH1 0x0 DUP5 DUP2 MSTORE PUSH1 0x4 PUSH1 0x20 MSTORE PUSH1 0x40 SWAP1 KECCAK256 PUSH1 0x3 ADD SLOAD DUP5 SWAP1 PUSH2 0x56C JUMPI PUSH1 0x40 MLOAD PUSH3 0x461BCD PUSH1 0xE5 SHL DUP2 MSTORE PUSH1 0x20 PUSH1 0x4 DUP3 ADD MSTORE PUSH1 0x2D PUSH1 0x24 DUP3 ADD MSTORE PUSH32 0x546865206C6F7420776974682074686520676976656E206E756D62657220646F PUSH1 0x44 DUP3 ADD MSTORE PUSH13 0x6573206E6F7420657869737421 PUSH1 0x98 SHL PUSH1 0x64 DUP3 ADD MSTORE PUSH1 0x84 ADD PUSH2 0x4ED JUMP JUMPDEST PUSH1 0x1 PUSH1 0x0 DUP1 DUP3 DUP3 SLOAD PUSH2 0x57E SWAP2 SWAP1 PUSH2 0x1AF5 JUMP JUMPDEST SWAP1 SWAP2 SSTORE POP POP PUSH1 0x40 DUP1 MLOAD PUSH1 0xA0 DUP2 ADD DUP3 MSTORE CALLER DUP2 MSTORE PUSH1 0x0 DUP8 DUP2 MSTORE PUSH1 0x4 PUSH1 0x20 SWAP1 DUP2 MSTORE SWAP1 DUP4 SWAP1 KECCAK256 PUSH1 0x2 ADD SLOAD DUP2 DUP4 ADD MSTORE TIMESTAMP DUP3 DUP5 ADD MSTORE DUP3 MLOAD PUSH1 0x1F DUP8 ADD DUP3 SWAP1 DIV DUP3 MUL DUP2 ADD DUP3 ADD SWAP1 SWAP4 MSTORE DUP6 DUP4 MSTORE SWAP1 SWAP2 PUSH1 0x60 DUP4 ADD SWAP2 DUP8 SWAP1 DUP8 SWAP1 DUP2 SWAP1 DUP5 ADD DUP4 DUP3 DUP1 DUP3 DUP5 CALLDATACOPY PUSH1 0x0 SWAP3 ADD SWAP2 SWAP1 SWAP2 MSTORE POP POP POP SWAP1 DUP3 MSTORE POP PUSH1 0x20 ADD PUSH2 0x5F2 DUP5 PUSH2 0x1B26 JUMP JUMPDEST SWAP1 MSTORE PUSH1 0x0 DUP1 SLOAD DUP2 MSTORE PUSH1 0x3 PUSH1 0x20 DUP2 DUP2 MSTORE PUSH1 0x40 SWAP3 DUP4 SWAP1 KECCAK256 DUP5 MLOAD DUP2 SLOAD PUSH1 0x1 PUSH1 0x1 PUSH1 0xA0 SHL SUB NOT AND PUSH1 0x1 PUSH1 0x1 PUSH1 0xA0 SHL SUB SWAP1 SWAP2 AND OR DUP2 SSTORE DUP5 DUP3 ADD MLOAD PUSH1 0x1 DUP3 ADD SSTORE SWAP3 DUP5 ADD MLOAD PUSH1 0x2 DUP5 ADD SSTORE PUSH1 0x60 DUP5 ADD MLOAD DUP1 MLOAD PUSH2 0x64D SWAP4 DUP6 ADD SWAP3 SWAP2 SWAP1 SWAP2 ADD SWAP1 PUSH2 0x1355 JUMP JUMPDEST POP PUSH1 0x80 DUP3 ADD MLOAD DUP1 MLOAD DUP1 MLOAD PUSH1 0x4 DUP5 ADD SWAP2 PUSH2 0x66B SWAP2 DUP4 SWAP2 PUSH1 0x20 ADD SWAP1 PUSH2 0x1355 JUMP JUMPDEST POP PUSH1 0x20 DUP3 DUP2 ADD MLOAD DUP1 MLOAD PUSH2 0x684 SWAP3 PUSH1 0x1 DUP6 ADD SWAP3 ADD SWAP1 PUSH2 0x1355 JUMP JUMPDEST POP POP PUSH1 0x0 DUP1 SLOAD DUP10 DUP3 MSTORE PUSH1 0x4 PUSH1 0x20 MSTORE PUSH1 0x40 SWAP2 DUP3 SWAP1 KECCAK256 PUSH1 0x2 ADD DUP2 SWAP1 SSTORE SWAP1 MLOAD SWAP1 SWAP4 POP PUSH32 0xEC445C04D22149C0897018B599BFBFFBBCF13B30A4DA88D37E30EE6DF86D6B24 SWAP3 POP PUSH2 0x6D4 SWAP2 POP TIMESTAMP DUP2 MSTORE PUSH1 0x20 ADD SWAP1 JUMP JUMPDEST PUSH1 0x40 MLOAD DUP1 SWAP2 SUB SWAP1 LOG2 POP POP POP POP POP JUMP JUMPDEST PUSH1 0x7 PUSH1 0x20 MSTORE PUSH1 0x0 SWAP1 DUP2 MSTORE PUSH1 0x40 SWAP1 DUP2 SWAP1 KECCAK256 DUP1 SLOAD PUSH1 0x1 DUP3 ADD SLOAD DUP4 MLOAD DUP1 DUP6 ADD SWAP1 SWAP5 MSTORE PUSH1 0x2 DUP4 ADD DUP1 SLOAD SWAP3 SWAP5 PUSH1 0x1 PUSH1 0x1 PUSH1 0xA0 SHL SUB SWAP1 SWAP3 AND SWAP4 SWAP3 DUP3 SWAP1 DUP3 SWAP1 PUSH2 0x724 SWAP1 PUSH2 0x1BA9 JUMP JUMPDEST DUP1 PUSH1 0x1F ADD PUSH1 0x20 DUP1 SWAP2 DIV MUL PUSH1 0x20 ADD PUSH1 0x40 MLOAD SWAP1 DUP2 ADD PUSH1 0x40 MSTORE DUP1 SWAP3 SWAP2 SWAP1 DUP2 DUP2 MSTORE PUSH1 0x20 ADD DUP3 DUP1 SLOAD PUSH2 0x750 SWAP1 PUSH2 0x1BA9 JUMP JUMPDEST DUP1 ISZERO PUSH2 0x79D JUMPI DUP1 PUSH1 0x1F LT PUSH2 0x772 JUMPI PUSH2 0x100 DUP1 DUP4 SLOAD DIV MUL DUP4 MSTORE SWAP2 PUSH1 0x20 ADD SWAP2 PUSH2 0x79D JUMP JUMPDEST DUP3 ADD SWAP2 SWAP1 PUSH1 0x0 MSTORE PUSH1 0x20 PUSH1 0x0 KECCAK256 SWAP1 JUMPDEST DUP2 SLOAD DUP2 MSTORE SWAP1 PUSH1 0x1 ADD SWAP1 PUSH1 0x20 ADD DUP1 DUP4 GT PUSH2 0x780 JUMPI DUP3 SWAP1 SUB PUSH1 0x1F AND DUP3 ADD SWAP2 JUMPDEST POP POP POP POP POP DUP2 MSTORE PUSH1 0x20 ADD PUSH1 0x1 DUP3 ADD DUP1 SLOAD PUSH2 0x7B6 SWAP1 PUSH2 0x1BA9 JUMP JUMPDEST DUP1 PUSH1 0x1F ADD PUSH1 0x20 DUP1 SWAP2 DIV MUL PUSH1 0x20 ADD PUSH1 0x40 MLOAD SWAP1 DUP2 ADD PUSH1 0x40 MSTORE DUP1 SWAP3 SWAP2 SWAP1 DUP2 DUP2 MSTORE PUSH1 0x20 ADD DUP3 DUP1 SLOAD PUSH2 0x7E2 SWAP1 PUSH2 0x1BA9 JUMP JUMPDEST DUP1 ISZERO PUSH2 0x82F JUMPI DUP1 PUSH1 0x1F LT PUSH2 0x804 JUMPI PUSH2 0x100 DUP1 DUP4 SLOAD DIV MUL DUP4 MSTORE SWAP2 PUSH1 0x20 ADD SWAP2 PUSH2 0x82F JUMP JUMPDEST DUP3 ADD SWAP2 SWAP1 PUSH1 0x0 MSTORE PUSH1 0x20 PUSH1 0x0 KECCAK256 SWAP1 JUMPDEST DUP2 SLOAD DUP2 MSTORE SWAP1 PUSH1 0x1 ADD SWAP1 PUSH1 0x20 ADD DUP1 DUP4 GT PUSH2 0x812 JUMPI DUP3 SWAP1 SUB PUSH1 0x1F AND DUP3 ADD SWAP2 JUMPDEST POP POP POP POP POP DUP2 MSTORE POP POP SWAP1 POP DUP4 JUMP JUMPDEST PUSH1 0x0 PUSH1 0x3 PUSH2 0x43A JUMP JUMPDEST PUSH1 0x2 SLOAD PUSH1 0x1 PUSH1 0x1 PUSH1 0xA0 SHL SUB AND CALLER EQ PUSH2 0x870 JUMPI PUSH1 0x40 MLOAD PUSH3 0x461BCD PUSH1 0xE5 SHL DUP2 MSTORE PUSH1 0x4 ADD PUSH2 0x4ED SWAP1 PUSH2 0x1861 JUMP JUMPDEST PUSH1 0x1 PUSH1 0x1 PUSH1 0xA0 SHL SUB DUP1 DUP3 AND PUSH1 0x0 SWAP1 DUP2 MSTORE PUSH1 0x5 PUSH1 0x20 MSTORE PUSH1 0x40 SWAP1 KECCAK256 PUSH1 0x1 ADD SLOAD DUP3 SWAP2 PUSH2 0x100 SWAP1 SWAP2 DIV AND PUSH2 0x8B2 JUMPI PUSH1 0x40 MLOAD PUSH3 0x461BCD PUSH1 0xE5 SHL DUP2 MSTORE PUSH1 0x4 ADD PUSH2 0x4ED SWAP1 PUSH2 0x18AC JUMP JUMPDEST PUSH1 0x1 PUSH1 0x1 PUSH1 0xA0 SHL SUB DUP3 AND PUSH1 0x0 SWAP1 DUP2 MSTORE PUSH1 0x5 PUSH1 0x20 MSTORE PUSH1 0x40 DUP2 KECCAK256 SWAP1 PUSH2 0x8D5 DUP3 DUP3 PUSH2 0x13D9 JUMP JUMPDEST POP PUSH1 0x1 ADD DUP1 SLOAD PUSH1 0x1 PUSH1 0x1 PUSH1 0xA8 SHL SUB NOT AND SWAP1 SSTORE POP POP JUMP JUMPDEST PUSH1 0x3 PUSH1 0x20 DUP2 SWAP1 MSTORE PUSH1 0x0 SWAP2 DUP3 MSTORE PUSH1 0x40 SWAP1 SWAP2 KECCAK256 DUP1 SLOAD PUSH1 0x1 DUP3 ADD SLOAD PUSH1 0x2 DUP4 ADD SLOAD SWAP4 DUP4 ADD DUP1 SLOAD PUSH1 0x1 PUSH1 0x1 PUSH1 0xA0 SHL SUB SWAP1 SWAP4 AND SWAP5 SWAP2 SWAP4 SWAP2 SWAP3 PUSH2 0x926 SWAP1 PUSH2 0x1BA9 JUMP JUMPDEST DUP1 PUSH1 0x1F ADD PUSH1 0x20 DUP1 SWAP2 DIV MUL PUSH1 0x20 ADD PUSH1 0x40 MLOAD SWAP1 DUP2 ADD PUSH1 0x40 MSTORE DUP1 SWAP3 SWAP2 SWAP1 DUP2 DUP2 MSTORE PUSH1 0x20 ADD DUP3 DUP1 SLOAD PUSH2 0x952 SWAP1 PUSH2 0x1BA9 JUMP JUMPDEST DUP1 ISZERO PUSH2 0x99F JUMPI DUP1 PUSH1 0x1F LT PUSH2 0x974 JUMPI PUSH2 0x100 DUP1 DUP4 SLOAD DIV MUL DUP4 MSTORE SWAP2 PUSH1 0x20 ADD SWAP2 PUSH2 0x99F JUMP JUMPDEST DUP3 ADD SWAP2 SWAP1 PUSH1 0x0 MSTORE PUSH1 0x20 PUSH1 0x0 KECCAK256 SWAP1 JUMPDEST DUP2 SLOAD DUP2 MSTORE SWAP1 PUSH1 0x1 ADD SWAP1 PUSH1 0x20 ADD DUP1 DUP4 GT PUSH2 0x982 JUMPI DUP3 SWAP1 SUB PUSH1 0x1F AND DUP3 ADD SWAP2 JUMPDEST POP POP POP POP POP SWAP1 DUP1 PUSH1 0x4 ADD PUSH1 0x40 MLOAD DUP1 PUSH1 0x40 ADD PUSH1 0x40 MSTORE SWAP1 DUP2 PUSH1 0x0 DUP3 ADD DUP1 SLOAD PUSH2 0x9C4 SWAP1 PUSH2 0x1BA9 JUMP JUMPDEST DUP1 PUSH1 0x1F ADD PUSH1 0x20 DUP1 SWAP2 DIV MUL PUSH1 0x20 ADD PUSH1 0x40 MLOAD SWAP1 DUP2 ADD PUSH1 0x40 MSTORE DUP1 SWAP3 SWAP2 SWAP1 DUP2 DUP2 MSTORE PUSH1 0x20 ADD DUP3 DUP1 SLOAD PUSH2 0x9F0 SWAP1 PUSH2 0x1BA9 JUMP JUMPDEST DUP1 ISZERO PUSH2 0xA3D JUMPI DUP1 PUSH1 0x1F LT PUSH2 0xA12 JUMPI PUSH2 0x100 DUP1 DUP4 SLOAD DIV MUL DUP4 MSTORE SWAP2 PUSH1 0x20 ADD SWAP2 PUSH2 0xA3D JUMP JUMPDEST DUP3 ADD SWAP2 SWAP1 PUSH1 0x0 MSTORE PUSH1 0x20 PUSH1 0x0 KECCAK256 SWAP1 JUMPDEST DUP2 SLOAD DUP2 MSTORE SWAP1 PUSH1 0x1 ADD SWAP1 PUSH1 0x20 ADD DUP1 DUP4 GT PUSH2 0xA20 JUMPI DUP3 SWAP1 SUB PUSH1 0x1F AND DUP3 ADD SWAP2 JUMPDEST POP POP POP POP POP DUP2 MSTORE PUSH1 0x20 ADD PUSH1 0x1 DUP3 ADD DUP1 SLOAD PUSH2 0xA56 SWAP1 PUSH2 0x1BA9 JUMP JUMPDEST DUP1 PUSH1 0x1F ADD PUSH1 0x20 DUP1 SWAP2 DIV MUL PUSH1 0x20 ADD PUSH1 0x40 MLOAD SWAP1 DUP2 ADD PUSH1 0x40 MSTORE DUP1 SWAP3 SWAP2 SWAP1 DUP2 DUP2 MSTORE PUSH1 0x20 ADD DUP3 DUP1 SLOAD PUSH2 0xA82 SWAP1 PUSH2 0x1BA9 JUMP JUMPDEST DUP1 ISZERO PUSH2 0xACF JUMPI DUP1 PUSH1 0x1F LT PUSH2 0xAA4 JUMPI PUSH2 0x100 DUP1 DUP4 SLOAD DIV MUL DUP4 MSTORE SWAP2 PUSH1 0x20 ADD SWAP2 PUSH2 0xACF JUMP JUMPDEST DUP3 ADD SWAP2 SWAP1 PUSH1 0x0 MSTORE PUSH1 0x20 PUSH1 0x0 KECCAK256 SWAP1 JUMPDEST DUP2 SLOAD DUP2 MSTORE SWAP1 PUSH1 0x1 ADD SWAP1 PUSH1 0x20 ADD DUP1 DUP4 GT PUSH2 0xAB2 JUMPI DUP3 SWAP1 SUB PUSH1 0x1F AND DUP3 ADD SWAP2 JUMPDEST POP POP POP POP POP DUP2 MSTORE POP POP SWAP1 POP DUP6 JUMP JUMPDEST PUSH1 0x40 DUP1 MLOAD PUSH1 0xC0 DUP2 ADD DUP3 MSTORE PUSH1 0x0 PUSH1 0x80 DUP3 ADD DUP2 DUP2 MSTORE PUSH1 0xA0 DUP4 ADD DUP3 SWAP1 MSTORE DUP3 MSTORE PUSH1 0x20 DUP3 ADD DUP2 SWAP1 MSTORE SWAP2 DUP2 ADD SWAP2 SWAP1 SWAP2 MSTORE PUSH1 0x60 DUP1 DUP3 ADD MSTORE PUSH1 0x0 DUP3 DUP2 MSTORE PUSH1 0x4 PUSH1 0x20 DUP2 DUP2 MSTORE PUSH1 0x40 SWAP3 DUP4 SWAP1 KECCAK256 DUP4 MLOAD PUSH1 0xC0 DUP2 ADD DUP6 MSTORE DUP2 SLOAD PUSH1 0xFF AND ISZERO ISZERO PUSH1 0x80 DUP3 ADD SWAP1 DUP2 MSTORE PUSH1 0x1 DUP4 ADD SLOAD PUSH1 0xA0 DUP4 ADD MSTORE DUP2 MSTORE PUSH1 0x2 DUP3 ADD SLOAD DUP2 DUP5 ADD MSTORE PUSH1 0x3 DUP3 ADD SLOAD DUP2 DUP7 ADD MSTORE SWAP3 DUP2 ADD DUP1 SLOAD DUP6 MLOAD DUP2 DUP6 MUL DUP2 ADD DUP6 ADD SWAP1 SWAP7 MSTORE DUP1 DUP7 MSTORE SWAP4 SWAP5 SWAP2 SWAP4 PUSH1 0x60 DUP7 ADD SWAP4 DUP4 ADD DUP3 DUP3 DUP1 ISZERO PUSH2 0xB9F JUMPI PUSH1 0x20 MUL DUP3 ADD SWAP2 SWAP1 PUSH1 0x0 MSTORE PUSH1 0x20 PUSH1 0x0 KECCAK256 SWAP1 JUMPDEST DUP2 SLOAD DUP2 MSTORE PUSH1 0x20 ADD SWAP1 PUSH1 0x1 ADD SWAP1 DUP1 DUP4 GT PUSH2 0xB8B JUMPI JUMPDEST POP POP POP POP POP DUP2 MSTORE POP POP SWAP1 POP SWAP2 SWAP1 POP JUMP JUMPDEST PUSH1 0x2 SLOAD PUSH1 0x1 PUSH1 0x1 PUSH1 0xA0 SHL SUB AND CALLER EQ DUP1 PUSH2 0xBCC JUMPI POP PUSH2 0xBCC CALLER PUSH2 0x83D JUMP JUMPDEST PUSH2 0xC33 JUMPI PUSH1 0x40 MLOAD PUSH3 0x461BCD PUSH1 0xE5 SHL DUP2 MSTORE PUSH1 0x20 PUSH1 0x4 DUP3 ADD MSTORE PUSH1 0x32 PUSH1 0x24 DUP3 ADD MSTORE PUSH32 0x546869732066756E6374696F6E206973206F6E6C792063616C6C61626C652062 PUSH1 0x44 DUP3 ADD MSTORE PUSH18 0x792061206D696C6B2070726F647563657221 PUSH1 0x70 SHL PUSH1 0x64 DUP3 ADD MSTORE PUSH1 0x84 ADD PUSH2 0x4ED JUMP JUMPDEST PUSH1 0x1 PUSH1 0x6 PUSH1 0x0 DUP3 DUP3 SLOAD PUSH2 0xC46 SWAP2 SWAP1 PUSH2 0x1AF5 JUMP JUMPDEST SWAP1 SWAP2 SSTORE POP POP PUSH1 0x40 DUP1 MLOAD PUSH1 0x60 DUP2 ADD DUP3 MSTORE TIMESTAMP DUP2 MSTORE CALLER PUSH1 0x20 DUP3 ADD MSTORE SWAP1 DUP2 ADD PUSH2 0xC6A DUP4 PUSH2 0x1B26 JUMP JUMPDEST SWAP1 MSTORE PUSH1 0x6 SLOAD PUSH1 0x0 SWAP1 DUP2 MSTORE PUSH1 0x7 PUSH1 0x20 SWAP1 DUP2 MSTORE PUSH1 0x40 SWAP2 DUP3 SWAP1 KECCAK256 DUP4 MLOAD DUP2 SSTORE DUP4 DUP3 ADD MLOAD PUSH1 0x1 DUP3 ADD DUP1 SLOAD PUSH1 0x1 PUSH1 0x1 PUSH1 0xA0 SHL SUB NOT AND PUSH1 0x1 PUSH1 0x1 PUSH1 0xA0 SHL SUB SWAP1 SWAP3 AND SWAP2 SWAP1 SWAP2 OR SWAP1 SSTORE SWAP2 DUP4 ADD MLOAD DUP1 MLOAD DUP1 MLOAD SWAP2 SWAP3 PUSH1 0x2 DUP6 ADD SWAP3 PUSH2 0xCC6 SWAP3 DUP5 SWAP3 ADD SWAP1 PUSH2 0x1355 JUMP JUMPDEST POP PUSH1 0x20 DUP3 DUP2 ADD MLOAD DUP1 MLOAD PUSH2 0xCDF SWAP3 PUSH1 0x1 DUP6 ADD SWAP3 ADD SWAP1 PUSH2 0x1355 JUMP JUMPDEST POP POP POP SWAP1 POP POP PUSH1 0x6 SLOAD PUSH32 0x1ED9A7A467FACF402D310BFED1DCB9ABEF3674E796E5CA5D19071DA6246EC908 TIMESTAMP PUSH1 0x40 MLOAD PUSH2 0xD19 SWAP2 DUP2 MSTORE PUSH1 0x20 ADD SWAP1 JUMP JUMPDEST PUSH1 0x40 MLOAD DUP1 SWAP2 SUB SWAP1 LOG2 POP JUMP JUMPDEST PUSH1 0x2 SLOAD PUSH1 0x1 PUSH1 0x1 PUSH1 0xA0 SHL SUB AND CALLER EQ PUSH2 0xD4E JUMPI PUSH1 0x40 MLOAD PUSH3 0x461BCD PUSH1 0xE5 SHL DUP2 MSTORE PUSH1 0x4 ADD PUSH2 0x4ED SWAP1 PUSH2 0x1861 JUMP JUMPDEST PUSH1 0x1 PUSH1 0x1 PUSH1 0xA0 SHL SUB DUP1 DUP4 AND PUSH1 0x0 SWAP1 DUP2 MSTORE PUSH1 0x5 PUSH1 0x20 MSTORE PUSH1 0x40 SWAP1 KECCAK256 PUSH1 0x1 ADD SLOAD DUP4 SWAP2 PUSH2 0x100 SWAP1 SWAP2 DIV AND PUSH2 0xD90 JUMPI PUSH1 0x40 MLOAD PUSH3 0x461BCD PUSH1 0xE5 SHL DUP2 MSTORE PUSH1 0x4 ADD PUSH2 0x4ED SWAP1 PUSH2 0x18AC JUMP JUMPDEST PUSH1 0x1 PUSH1 0x1 PUSH1 0xA0 SHL SUB DUP4 AND PUSH1 0x0 SWAP1 DUP2 MSTORE PUSH1 0x5 PUSH1 0x20 MSTORE PUSH1 0x40 SWAP1 KECCAK256 PUSH1 0x1 SWAP1 DUP2 ADD DUP1 SLOAD DUP5 SWAP3 PUSH1 0xFF NOT SWAP1 SWAP2 AND SWAP1 DUP4 PUSH1 0x3 DUP2 GT ISZERO PUSH2 0xDD8 JUMPI PUSH4 0x4E487B71 PUSH1 0xE0 SHL PUSH1 0x0 MSTORE PUSH1 0x21 PUSH1 0x4 MSTORE PUSH1 0x24 PUSH1 0x0 REVERT JUMPDEST MUL OR SWAP1 SSTORE POP PUSH1 0x1 PUSH1 0x1 PUSH1 0xA0 SHL SUB DUP4 AND PUSH1 0x0 SWAP1 DUP2 MSTORE PUSH1 0x5 PUSH1 0x20 MSTORE PUSH1 0x40 SWAP1 DUP2 SWAP1 KECCAK256 SWAP1 MLOAD PUSH32 0xFF2D2D00DEC063C036FF49FB55B1BF52D819C4C61DD7F8805B15F51D18090284 SWAP2 PUSH2 0xE24 SWAP2 PUSH2 0x1A1F JUMP JUMPDEST PUSH1 0x40 MLOAD DUP1 SWAP2 SUB SWAP1 LOG1 POP POP POP JUMP JUMPDEST PUSH1 0x2 SLOAD PUSH1 0x1 PUSH1 0x1 PUSH1 0xA0 SHL SUB AND CALLER EQ DUP1 PUSH2 0xE4E JUMPI POP PUSH2 0xE4E CALLER PUSH2 0x47F JUMP JUMPDEST PUSH2 0xE9A JUMPI PUSH1 0x40 MLOAD PUSH3 0x461BCD PUSH1 0xE5 SHL DUP2 MSTORE PUSH1 0x20 PUSH1 0x4 DUP3 ADD DUP2 SWAP1 MSTORE PUSH1 0x24 DUP3 ADD MSTORE PUSH32 0x4D73672E73656E646572206973206E6F74206261736963206F722061646D696E PUSH1 0x44 DUP3 ADD MSTORE PUSH1 0x64 ADD PUSH2 0x4ED JUMP JUMPDEST DUP2 DUP2 DUP1 PUSH2 0xF04 JUMPI PUSH1 0x40 MLOAD PUSH3 0x461BCD PUSH1 0xE5 SHL DUP2 MSTORE PUSH1 0x20 PUSH1 0x4 DUP3 ADD MSTORE PUSH1 0x32 PUSH1 0x24 DUP3 ADD MSTORE PUSH32 0x506C656173652070726F76696465206174206C65617374206F6E65206D696C6B PUSH1 0x44 DUP3 ADD MSTORE PUSH18 0x206261746368206964656E74696669657221 PUSH1 0x70 SHL PUSH1 0x64 DUP3 ADD MSTORE PUSH1 0x84 ADD PUSH2 0x4ED JUMP JUMPDEST PUSH1 0x0 JUMPDEST DUP2 DUP2 LT ISZERO PUSH2 0xFCA JUMPI PUSH1 0x7 PUSH1 0x0 DUP5 DUP5 DUP5 DUP2 DUP2 LT PUSH2 0xF33 JUMPI PUSH4 0x4E487B71 PUSH1 0xE0 SHL PUSH1 0x0 MSTORE PUSH1 0x32 PUSH1 0x4 MSTORE PUSH1 0x24 PUSH1 0x0 REVERT JUMPDEST SWAP1 POP PUSH1 0x20 MUL ADD CALLDATALOAD DUP2 MSTORE PUSH1 0x20 ADD SWAP1 DUP2 MSTORE PUSH1 0x20 ADD PUSH1 0x0 KECCAK256 PUSH1 0x0 ADD SLOAD PUSH1 0x0 EQ ISZERO PUSH2 0xFB8 JUMPI PUSH1 0x40 MLOAD PUSH3 0x461BCD PUSH1 0xE5 SHL DUP2 MSTORE PUSH1 0x20 PUSH1 0x4 DUP3 ADD MSTORE PUSH1 0x33 PUSH1 0x24 DUP3 ADD MSTORE PUSH32 0x506C656173652070726F76696465206F6E6C79206578697374696E67206D696C PUSH1 0x44 DUP3 ADD MSTORE PUSH19 0x6B206261746368206964656E74696669657273 PUSH1 0x68 SHL PUSH1 0x64 DUP3 ADD MSTORE PUSH1 0x84 ADD PUSH2 0x4ED JUMP JUMPDEST DUP1 PUSH2 0xFC2 DUP2 PUSH2 0x1BDE JUMP JUMPDEST SWAP2 POP POP PUSH2 0xF07 JUMP JUMPDEST POP PUSH1 0x1 DUP1 PUSH1 0x0 DUP3 DUP3 SLOAD PUSH2 0xFDD SWAP2 SWAP1 PUSH2 0x1AF5 JUMP JUMPDEST SWAP3 POP POP DUP2 SWAP1 SSTORE POP PUSH1 0x0 PUSH1 0x40 MLOAD DUP1 PUSH1 0x40 ADD PUSH1 0x40 MSTORE DUP1 PUSH1 0x0 ISZERO ISZERO DUP2 MSTORE PUSH1 0x20 ADD PUSH1 0x0 DUP2 MSTORE POP SWAP1 POP PUSH1 0x40 MLOAD DUP1 PUSH1 0x80 ADD PUSH1 0x40 MSTORE DUP1 DUP3 DUP2 MSTORE PUSH1 0x20 ADD PUSH1 0x0 DUP2 MSTORE PUSH1 0x20 ADD TIMESTAMP DUP2 MSTORE PUSH1 0x20 ADD DUP7 DUP7 DUP1 DUP1 PUSH1 0x20 MUL PUSH1 0x20 ADD PUSH1 0x40 MLOAD SWAP1 DUP2 ADD PUSH1 0x40 MSTORE DUP1 SWAP4 SWAP3 SWAP2 SWAP1 DUP2 DUP2 MSTORE PUSH1 0x20 ADD DUP4 DUP4 PUSH1 0x20 MUL DUP1 DUP3 DUP5 CALLDATACOPY PUSH1 0x0 SWAP3 ADD DUP3 SWAP1 MSTORE POP SWAP4 SWAP1 SWAP5 MSTORE POP POP PUSH1 0x1 DUP1 SLOAD DUP3 MSTORE PUSH1 0x4 PUSH1 0x20 DUP2 DUP2 MSTORE PUSH1 0x40 SWAP4 DUP5 SWAP1 KECCAK256 DUP7 MLOAD DUP1 MLOAD DUP3 SLOAD PUSH1 0xFF NOT AND SWAP1 ISZERO ISZERO OR DUP3 SSTORE DUP3 ADD MLOAD SWAP4 DUP2 ADD SWAP4 SWAP1 SWAP4 SSTORE DUP6 DUP2 ADD MLOAD PUSH1 0x2 DUP5 ADD SSTORE SWAP3 DUP6 ADD MLOAD PUSH1 0x3 DUP4 ADD SSTORE PUSH1 0x60 DUP6 ADD MLOAD DUP1 MLOAD SWAP3 SWAP5 POP PUSH2 0x10AD SWAP4 SWAP2 DUP6 ADD SWAP3 SWAP2 ADD SWAP1 PUSH2 0x1416 JUMP JUMPDEST POP SWAP1 POP POP PUSH1 0x1 SLOAD PUSH32 0xBED61055F62B96D21F771DEDADFCF299CB70EDF954DCD0C73C73E5EF16655E5 TIMESTAMP PUSH1 0x40 MLOAD PUSH2 0x6D4 SWAP2 DUP2 MSTORE PUSH1 0x20 ADD SWAP1 JUMP JUMPDEST PUSH1 0x2 SLOAD PUSH1 0x1 PUSH1 0x1 PUSH1 0xA0 SHL SUB AND CALLER EQ PUSH2 0x110F JUMPI PUSH1 0x40 MLOAD PUSH3 0x461BCD PUSH1 0xE5 SHL DUP2 MSTORE PUSH1 0x4 ADD PUSH2 0x4ED SWAP1 PUSH2 0x1861 JUMP JUMPDEST PUSH2 0x111F PUSH1 0x60 DUP3 ADD PUSH1 0x40 DUP4 ADD PUSH2 0x151E JUMP JUMPDEST PUSH1 0x1 PUSH1 0x1 PUSH1 0xA0 SHL SUB DUP2 AND PUSH2 0x1180 JUMPI PUSH1 0x40 MLOAD PUSH3 0x461BCD PUSH1 0xE5 SHL DUP2 MSTORE PUSH1 0x20 PUSH1 0x4 DUP3 ADD MSTORE PUSH1 0x22 PUSH1 0x24 DUP3 ADD MSTORE PUSH32 0x54686520616464726573732063616E6E6F742062652061203020616464726573 PUSH1 0x44 DUP3 ADD MSTORE PUSH2 0x7321 PUSH1 0xF0 SHL PUSH1 0x64 DUP3 ADD MSTORE PUSH1 0x84 ADD PUSH2 0x4ED JUMP JUMPDEST PUSH2 0x1190 PUSH1 0x60 DUP4 ADD PUSH1 0x40 DUP5 ADD PUSH2 0x151E JUMP JUMPDEST PUSH1 0x1 PUSH1 0x1 PUSH1 0xA0 SHL SUB DUP2 DUP2 AND PUSH1 0x0 SWAP1 DUP2 MSTORE PUSH1 0x5 PUSH1 0x20 MSTORE PUSH1 0x40 SWAP1 KECCAK256 PUSH1 0x1 ADD SLOAD PUSH2 0x100 SWAP1 DIV AND ISZERO PUSH2 0x1217 JUMPI PUSH1 0x40 MLOAD PUSH3 0x461BCD PUSH1 0xE5 SHL DUP2 MSTORE PUSH1 0x20 PUSH1 0x4 DUP3 ADD MSTORE PUSH1 0x2E PUSH1 0x24 DUP3 ADD MSTORE PUSH32 0x41207061727469636970616E7420776974682074686973206164647265737320 PUSH1 0x44 DUP3 ADD MSTORE PUSH14 0x65786973747320616C7265616479 PUSH1 0x90 SHL PUSH1 0x64 DUP3 ADD MSTORE PUSH1 0x84 ADD PUSH2 0x4ED JUMP JUMPDEST DUP3 PUSH1 0x5 PUSH1 0x0 PUSH2 0x122C PUSH1 0x60 DUP5 ADD PUSH1 0x40 DUP6 ADD PUSH2 0x151E JUMP JUMPDEST PUSH1 0x1 PUSH1 0x1 PUSH1 0xA0 SHL SUB AND DUP2 MSTORE PUSH1 0x20 DUP2 ADD SWAP2 SWAP1 SWAP2 MSTORE PUSH1 0x40 ADD PUSH1 0x0 KECCAK256 PUSH2 0x124F DUP3 DUP3 PUSH2 0x1C76 JUMP JUMPDEST SWAP1 POP POP PUSH32 0xEF9377C241485790A66C08BE6E52DFF1AD726099E0467FB606578787DE7941E3 DUP4 PUSH1 0x40 MLOAD PUSH2 0xE24 SWAP2 SWAP1 PUSH2 0x1974 JUMP JUMPDEST PUSH1 0x2 SLOAD PUSH1 0x1 PUSH1 0x1 PUSH1 0xA0 SHL SUB AND CALLER EQ DUP1 PUSH2 0x129E JUMPI POP PUSH2 0x129E CALLER PUSH2 0x435 JUMP JUMPDEST PUSH2 0x12EA JUMPI PUSH1 0x40 MLOAD PUSH3 0x461BCD PUSH1 0xE5 SHL DUP2 MSTORE PUSH1 0x20 PUSH1 0x4 DUP3 ADD MSTORE PUSH1 0x1E PUSH1 0x24 DUP3 ADD MSTORE PUSH32 0x4D73672E73656E646572206973206E6F74206C6162206F722061646D696E0000 PUSH1 0x44 DUP3 ADD MSTORE PUSH1 0x64 ADD PUSH2 0x4ED JUMP JUMPDEST PUSH1 0x40 DUP1 MLOAD DUP1 DUP3 ADD DUP3 MSTORE DUP3 ISZERO ISZERO DUP1 DUP3 MSTORE TIMESTAMP PUSH1 0x20 DUP1 DUP5 ADD DUP3 DUP2 MSTORE PUSH1 0x0 DUP9 DUP2 MSTORE PUSH1 0x4 SWAP1 SWAP3 MSTORE DUP6 DUP3 KECCAK256 SWAP5 MLOAD DUP6 SLOAD PUSH1 0xFF NOT AND SWAP1 ISZERO ISZERO OR DUP6 SSTORE MLOAD PUSH1 0x1 SWAP1 SWAP5 ADD SWAP4 SWAP1 SWAP4 SSTORE SWAP3 MLOAD SWAP1 SWAP2 DUP6 SWAP2 PUSH32 0xF77D5F9755B6151104D42D1008BF3453A129D0642C72A499F7B38CB68416A619 SWAP2 SWAP1 LOG4 POP POP JUMP JUMPDEST DUP3 DUP1 SLOAD PUSH2 0x1361 SWAP1 PUSH2 0x1BA9 JUMP JUMPDEST SWAP1 PUSH1 0x0 MSTORE PUSH1 0x20 PUSH1 0x0 KECCAK256 SWAP1 PUSH1 0x1F ADD PUSH1 0x20 SWAP1 DIV DUP2 ADD SWAP3 DUP3 PUSH2 0x1383 JUMPI PUSH1 0x0 DUP6 SSTORE PUSH2 0x13C9 JUMP JUMPDEST DUP3 PUSH1 0x1F LT PUSH2 0x139C JUMPI DUP1 MLOAD PUSH1 0xFF NOT AND DUP4 DUP1 ADD OR DUP6 SSTORE PUSH2 0x13C9 JUMP JUMPDEST DUP3 DUP1 ADD PUSH1 0x1 ADD DUP6 SSTORE DUP3 ISZERO PUSH2 0x13C9 JUMPI SWAP2 DUP3 ADD JUMPDEST DUP3 DUP2 GT ISZERO PUSH2 0x13C9 JUMPI DUP3 MLOAD DUP3 SSTORE SWAP2 PUSH1 0x20 ADD SWAP2 SWAP1 PUSH1 0x1 ADD SWAP1 PUSH2 0x13AE JUMP JUMPDEST POP PUSH2 0x13D5 SWAP3 SWAP2 POP PUSH2 0x1450 JUMP JUMPDEST POP SWAP1 JUMP JUMPDEST POP DUP1 SLOAD PUSH2 0x13E5 SWAP1 PUSH2 0x1BA9 JUMP JUMPDEST PUSH1 0x0 DUP3 SSTORE DUP1 PUSH1 0x1F LT PUSH2 0x13F5 JUMPI POP POP JUMP JUMPDEST PUSH1 0x1F ADD PUSH1 0x20 SWAP1 DIV SWAP1 PUSH1 0x0 MSTORE PUSH1 0x20 PUSH1 0x0 KECCAK256 SWAP1 DUP2 ADD SWAP1 PUSH2 0x1413 SWAP2 SWAP1 PUSH2 0x1450 JUMP JUMPDEST POP JUMP JUMPDEST DUP3 DUP1 SLOAD DUP3 DUP3 SSTORE SWAP1 PUSH1 0x0 MSTORE PUSH1 0x20 PUSH1 0x0 KECCAK256 SWAP1 DUP2 ADD SWAP3 DUP3 ISZERO PUSH2 0x13C9 JUMPI SWAP2 PUSH1 0x20 MUL DUP3 ADD DUP3 DUP2 GT ISZERO PUSH2 0x13C9 JUMPI DUP3 MLOAD DUP3 SSTORE SWAP2 PUSH1 0x20 ADD SWAP2 SWAP1 PUSH1 0x1 ADD SWAP1 PUSH2 0x13AE JUMP JUMPDEST JUMPDEST DUP1 DUP3 GT ISZERO PUSH2 0x13D5 JUMPI PUSH1 0x0 DUP2 SSTORE PUSH1 0x1 ADD PUSH2 0x1451 JUMP JUMPDEST DUP1 CALLDATALOAD PUSH2 0x1470 DUP2 PUSH2 0x1DF3 JUMP JUMPDEST SWAP2 SWAP1 POP JUMP JUMPDEST DUP1 CALLDATALOAD PUSH2 0x1470 DUP2 PUSH2 0x1E08 JUMP JUMPDEST PUSH1 0x0 DUP3 PUSH1 0x1F DUP4 ADD SLT PUSH2 0x1490 JUMPI DUP1 DUP2 REVERT JUMPDEST DUP2 CALLDATALOAD PUSH8 0xFFFFFFFFFFFFFFFF DUP1 DUP3 GT ISZERO PUSH2 0x14AB JUMPI PUSH2 0x14AB PUSH2 0x1C0F JUMP JUMPDEST PUSH1 0x40 MLOAD PUSH1 0x1F DUP4 ADD PUSH1 0x1F NOT SWAP1 DUP2 AND PUSH1 0x3F ADD AND DUP2 ADD SWAP1 DUP3 DUP3 GT DUP2 DUP4 LT OR ISZERO PUSH2 0x14D3 JUMPI PUSH2 0x14D3 PUSH2 0x1C0F JUMP JUMPDEST DUP2 PUSH1 0x40 MSTORE DUP4 DUP2 MSTORE DUP7 PUSH1 0x20 DUP6 DUP9 ADD ADD GT ISZERO PUSH2 0x14EB JUMPI DUP5 DUP6 REVERT JUMPDEST DUP4 PUSH1 0x20 DUP8 ADD PUSH1 0x20 DUP4 ADD CALLDATACOPY SWAP3 DUP4 ADD PUSH1 0x20 ADD SWAP4 SWAP1 SWAP4 MSTORE POP SWAP4 SWAP3 POP POP POP JUMP JUMPDEST PUSH1 0x0 PUSH1 0x40 DUP3 DUP5 SUB SLT ISZERO PUSH2 0x1518 JUMPI DUP1 DUP2 REVERT JUMPDEST POP SWAP2 SWAP1 POP JUMP JUMPDEST PUSH1 0x0 PUSH1 0x20 DUP3 DUP5 SUB SLT ISZERO PUSH2 0x152F JUMPI DUP1 DUP2 REVERT JUMPDEST DUP2 CALLDATALOAD PUSH2 0x153A DUP2 PUSH2 0x1DF3 JUMP JUMPDEST SWAP4 SWAP3 POP POP POP JUMP JUMPDEST PUSH1 0x0 DUP1 PUSH1 0x40 DUP4 DUP6 SUB SLT ISZERO PUSH2 0x1553 JUMPI DUP1 DUP2 REVERT JUMPDEST DUP3 CALLDATALOAD PUSH2 0x155E DUP2 PUSH2 0x1DF3 JUMP JUMPDEST SWAP2 POP PUSH1 0x20 DUP4 ADD CALLDATALOAD PUSH2 0x156E DUP2 PUSH2 0x1E08 JUMP JUMPDEST DUP1 SWAP2 POP POP SWAP3 POP SWAP3 SWAP1 POP JUMP JUMPDEST PUSH1 0x0 DUP1 PUSH1 0x20 DUP4 DUP6 SUB SLT ISZERO PUSH2 0x158B JUMPI DUP2 DUP3 REVERT JUMPDEST DUP3 CALLDATALOAD PUSH8 0xFFFFFFFFFFFFFFFF DUP1 DUP3 GT ISZERO PUSH2 0x15A2 JUMPI DUP4 DUP5 REVERT JUMPDEST DUP2 DUP6 ADD SWAP2 POP DUP6 PUSH1 0x1F DUP4 ADD SLT PUSH2 0x15B5 JUMPI DUP4 DUP5 REVERT JUMPDEST DUP2 CALLDATALOAD DUP2 DUP2 GT ISZERO PUSH2 0x15C3 JUMPI DUP5 DUP6 REVERT JUMPDEST DUP7 PUSH1 0x20 DUP3 PUSH1 0x5 SHL DUP6 ADD ADD GT ISZERO PUSH2 0x15D7 JUMPI DUP5 DUP6 REVERT JUMPDEST PUSH1 0x20 SWAP3 SWAP1 SWAP3 ADD SWAP7 SWAP2 SWAP6 POP SWAP1 SWAP4 POP POP POP POP JUMP JUMPDEST PUSH1 0x0 PUSH1 0x20 DUP3 DUP5 SUB SLT ISZERO PUSH2 0x15FA JUMPI DUP1 DUP2 REVERT JUMPDEST DUP2 CALLDATALOAD PUSH8 0xFFFFFFFFFFFFFFFF DUP2 GT ISZERO PUSH2 0x1610 JUMPI DUP2 DUP3 REVERT JUMPDEST PUSH2 0x161C DUP5 DUP3 DUP6 ADD PUSH2 0x1507 JUMP JUMPDEST SWAP5 SWAP4 POP POP POP POP JUMP JUMPDEST PUSH1 0x0 PUSH1 0x20 DUP3 DUP5 SUB SLT ISZERO PUSH2 0x1635 JUMPI DUP1 DUP2 REVERT JUMPDEST DUP2 CALLDATALOAD PUSH8 0xFFFFFFFFFFFFFFFF DUP2 GT ISZERO PUSH2 0x164B JUMPI DUP2 DUP3 REVERT JUMPDEST DUP3 ADD PUSH1 0x60 DUP2 DUP6 SUB SLT ISZERO PUSH2 0x153A JUMPI DUP2 DUP3 REVERT JUMPDEST PUSH1 0x0 PUSH1 0x20 DUP3 DUP5 SUB SLT ISZERO PUSH2 0x166D JUMPI DUP1 DUP2 REVERT JUMPDEST POP CALLDATALOAD SWAP2 SWAP1 POP JUMP JUMPDEST PUSH1 0x0 DUP1 PUSH1 0x40 DUP4 DUP6 SUB SLT ISZERO PUSH2 0x1686 JUMPI DUP2 DUP3 REVERT JUMPDEST DUP3 CALLDATALOAD SWAP2 POP PUSH1 0x20 DUP4 ADD CALLDATALOAD DUP1 ISZERO ISZERO DUP2 EQ PUSH2 0x156E JUMPI DUP2 DUP3 REVERT JUMPDEST PUSH1 0x0 DUP1 PUSH1 0x0 DUP1 PUSH1 0x60 DUP6 DUP8 SUB SLT ISZERO PUSH2 0x16B1 JUMPI DUP2 DUP3 REVERT JUMPDEST DUP5 CALLDATALOAD SWAP4 POP PUSH1 0x20 DUP6 ADD CALLDATALOAD PUSH8 0xFFFFFFFFFFFFFFFF DUP1 DUP3 GT ISZERO PUSH2 0x16CF JUMPI DUP4 DUP5 REVERT JUMPDEST DUP2 DUP8 ADD SWAP2 POP DUP8 PUSH1 0x1F DUP4 ADD SLT PUSH2 0x16E2 JUMPI DUP4 DUP5 REVERT JUMPDEST DUP2 CALLDATALOAD DUP2 DUP2 GT ISZERO PUSH2 0x16F0 JUMPI DUP5 DUP6 REVERT JUMPDEST DUP9 PUSH1 0x20 DUP3 DUP6 ADD ADD GT ISZERO PUSH2 0x1701 JUMPI DUP5 DUP6 REVERT JUMPDEST PUSH1 0x20 DUP4 ADD SWAP6 POP DUP1 SWAP5 POP POP PUSH1 0x40 DUP8 ADD CALLDATALOAD SWAP2 POP DUP1 DUP3 GT ISZERO PUSH2 0x171E JUMPI DUP3 DUP4 REVERT JUMPDEST POP PUSH2 0x172B DUP8 DUP3 DUP9 ADD PUSH2 0x1507 JUMP JUMPDEST SWAP2 POP POP SWAP3 SWAP6 SWAP2 SWAP5 POP SWAP3 POP JUMP JUMPDEST PUSH1 0x4 DUP2 LT PUSH2 0x1755 JUMPI PUSH4 0x4E487B71 PUSH1 0xE0 SHL PUSH1 0x0 MSTORE PUSH1 0x21 PUSH1 0x4 MSTORE PUSH1 0x24 PUSH1 0x0 REVERT JUMPDEST SWAP1 MSTORE JUMP JUMPDEST PUSH1 0x0 DUP2 MLOAD DUP1 DUP5 MSTORE DUP2 JUMPDEST DUP2 DUP2 LT ISZERO PUSH2 0x177E JUMPI PUSH1 0x20 DUP2 DUP6 ADD DUP2 ADD MLOAD DUP7 DUP4 ADD DUP3 ADD MSTORE ADD PUSH2 0x1762 JUMP JUMPDEST DUP2 DUP2 GT ISZERO PUSH2 0x178F JUMPI DUP3 PUSH1 0x20 DUP4 DUP8 ADD ADD MSTORE JUMPDEST POP PUSH1 0x1F ADD PUSH1 0x1F NOT AND SWAP3 SWAP1 SWAP3 ADD PUSH1 0x20 ADD SWAP3 SWAP2 POP POP JUMP JUMPDEST PUSH1 0x0 DUP2 MLOAD PUSH1 0x40 DUP5 MSTORE PUSH2 0x17B9 PUSH1 0x40 DUP6 ADD DUP3 PUSH2 0x1759 JUMP JUMPDEST SWAP1 POP PUSH1 0x20 DUP4 ADD MLOAD DUP5 DUP3 SUB PUSH1 0x20 DUP7 ADD MSTORE PUSH2 0x17D2 DUP3 DUP3 PUSH2 0x1759 JUMP JUMPDEST SWAP6 SWAP5 POP POP POP POP POP JUMP JUMPDEST PUSH1 0x1 DUP1 PUSH1 0xA0 SHL SUB DUP7 AND DUP2 MSTORE DUP5 PUSH1 0x20 DUP3 ADD MSTORE DUP4 PUSH1 0x40 DUP3 ADD MSTORE PUSH1 0xA0 PUSH1 0x60 DUP3 ADD MSTORE PUSH1 0x0 PUSH2 0x1808 PUSH1 0xA0 DUP4 ADD DUP6 PUSH2 0x1759 JUMP JUMPDEST DUP3 DUP2 SUB PUSH1 0x80 DUP5 ADD MSTORE PUSH2 0x181A DUP2 DUP6 PUSH2 0x17A4 JUMP JUMPDEST SWAP9 SWAP8 POP POP POP POP POP POP POP POP JUMP JUMPDEST PUSH1 0x60 DUP2 MSTORE PUSH1 0x0 PUSH2 0x1839 PUSH1 0x60 DUP4 ADD DUP7 PUSH2 0x1759 JUMP JUMPDEST SWAP1 POP PUSH2 0x1848 PUSH1 0x20 DUP4 ADD DUP6 PUSH2 0x1737 JUMP JUMPDEST PUSH1 0x1 PUSH1 0x1 PUSH1 0xA0 SHL SUB SWAP3 SWAP1 SWAP3 AND PUSH1 0x40 SWAP2 SWAP1 SWAP2 ADD MSTORE SWAP3 SWAP2 POP POP JUMP JUMPDEST PUSH1 0x20 DUP1 DUP3 MSTORE PUSH1 0x2B SWAP1 DUP3 ADD MSTORE PUSH32 0x546869732066756E6374696F6E206973206F6E6C792063616C6C61626C652062 PUSH1 0x40 DUP3 ADD MSTORE PUSH11 0x7920616E2061646D696E21 PUSH1 0xA8 SHL PUSH1 0x60 DUP3 ADD MSTORE PUSH1 0x80 ADD SWAP1 JUMP JUMPDEST PUSH1 0x20 DUP1 DUP3 MSTORE PUSH1 0x2E SWAP1 DUP3 ADD MSTORE PUSH32 0x41207061727469636970616E7420776974682074686973206164647265737320 PUSH1 0x40 DUP3 ADD MSTORE PUSH14 0x191BD95CC81B9BDD08195E1A5CDD PUSH1 0x92 SHL PUSH1 0x60 DUP3 ADD MSTORE PUSH1 0x80 ADD SWAP1 JUMP JUMPDEST PUSH1 0x20 DUP1 DUP3 MSTORE DUP3 MLOAD DUP1 MLOAD ISZERO ISZERO DUP4 DUP4 ADD MSTORE DUP2 ADD MLOAD PUSH1 0x40 DUP4 ADD MSTORE PUSH1 0x0 SWAP1 PUSH1 0xC0 DUP4 ADD DUP5 DUP3 ADD MLOAD PUSH1 0x60 DUP6 DUP2 ADD SWAP2 SWAP1 SWAP2 MSTORE PUSH1 0x40 DUP7 ADD MLOAD PUSH1 0x80 DUP7 ADD MSTORE DUP6 ADD MLOAD PUSH1 0xA0 DUP1 DUP7 ADD MSTORE DUP1 MLOAD SWAP2 DUP3 SWAP1 MSTORE DUP3 ADD SWAP1 DUP4 SWAP1 PUSH1 0xE0 DUP7 ADD SWAP1 JUMPDEST DUP1 DUP4 LT ISZERO PUSH2 0x1969 JUMPI DUP4 MLOAD DUP3 MSTORE SWAP3 DUP5 ADD SWAP3 PUSH1 0x1 SWAP3 SWAP1 SWAP3 ADD SWAP2 SWAP1 DUP5 ADD SWAP1 PUSH2 0x1949 JUMP JUMPDEST POP SWAP7 SWAP6 POP POP POP POP POP POP JUMP JUMPDEST PUSH1 0x20 DUP2 MSTORE PUSH1 0x0 DUP3 CALLDATALOAD PUSH1 0x1E NOT DUP5 CALLDATASIZE SUB ADD DUP2 SLT PUSH2 0x198D JUMPI DUP2 DUP3 REVERT JUMPDEST DUP4 ADD DUP1 CALLDATALOAD PUSH8 0xFFFFFFFFFFFFFFFF DUP2 GT ISZERO PUSH2 0x19A5 JUMPI DUP3 DUP4 REVERT JUMPDEST DUP1 CALLDATASIZE SUB DUP6 SGT ISZERO PUSH2 0x19B3 JUMPI DUP3 DUP4 REVERT JUMPDEST PUSH1 0x60 PUSH1 0x20 DUP6 ADD MSTORE DUP1 PUSH1 0x80 DUP6 ADD MSTORE DUP1 PUSH1 0x20 DUP4 ADD PUSH1 0xA0 DUP7 ADD CALLDATACOPY DUP3 PUSH1 0xA0 DUP3 DUP7 ADD ADD MSTORE PUSH2 0x19DE PUSH1 0x20 DUP7 ADD PUSH2 0x1475 JUMP JUMPDEST SWAP2 POP PUSH2 0x19ED PUSH1 0x40 DUP6 ADD DUP4 PUSH2 0x1737 JUMP JUMPDEST PUSH2 0x19F9 PUSH1 0x40 DUP7 ADD PUSH2 0x1465 JUMP JUMPDEST PUSH1 0x1 PUSH1 0x1 PUSH1 0xA0 SHL SUB DUP2 AND PUSH1 0x60 DUP7 ADD MSTORE SWAP2 POP PUSH1 0x1F ADD PUSH1 0x1F NOT AND SWAP3 SWAP1 SWAP3 ADD PUSH1 0xA0 ADD SWAP4 SWAP3 POP POP POP JUMP JUMPDEST PUSH1 0x0 PUSH1 0x20 DUP1 DUP4 MSTORE PUSH1 0x60 DUP2 DUP5 ADD MSTORE DUP2 DUP5 SLOAD PUSH2 0x1A38 DUP2 PUSH2 0x1BA9 JUMP JUMPDEST DUP1 PUSH1 0x80 DUP8 ADD MSTORE PUSH1 0xA0 PUSH1 0x1 DUP1 DUP5 AND PUSH1 0x0 DUP2 EQ PUSH2 0x1A5A JUMPI PUSH1 0x1 DUP2 EQ PUSH2 0x1A6E JUMPI PUSH2 0x1A99 JUMP JUMPDEST PUSH1 0xFF NOT DUP6 AND DUP10 DUP5 ADD MSTORE PUSH1 0xC0 DUP10 ADD SWAP6 POP PUSH2 0x1A99 JUMP JUMPDEST DUP10 DUP9 MSTORE DUP7 DUP9 KECCAK256 DUP9 JUMPDEST DUP6 DUP2 LT ISZERO PUSH2 0x1A91 JUMPI DUP2 SLOAD DUP12 DUP3 ADD DUP7 ADD MSTORE SWAP1 DUP4 ADD SWAP1 DUP9 ADD PUSH2 0x1A76 JUMP JUMPDEST DUP11 ADD DUP5 ADD SWAP7 POP POP JUMPDEST POP DUP9 ADD SLOAD SWAP5 POP PUSH2 0x1AB3 SWAP3 POP POP POP PUSH1 0x40 DUP6 ADD PUSH1 0xFF DUP5 AND PUSH2 0x1737 JUMP JUMPDEST PUSH1 0x1 PUSH1 0x1 PUSH1 0xA0 SHL SUB PUSH1 0x8 DUP4 SWAP1 SHR AND PUSH1 0x60 DUP6 ADD MSTORE PUSH2 0x161C JUMP JUMPDEST DUP4 DUP2 MSTORE PUSH1 0x1 PUSH1 0x1 PUSH1 0xA0 SHL SUB DUP4 AND PUSH1 0x20 DUP3 ADD MSTORE PUSH1 0x60 PUSH1 0x40 DUP3 ADD DUP2 SWAP1 MSTORE PUSH1 0x0 SWAP1 PUSH2 0x17D2 SWAP1 DUP4 ADD DUP5 PUSH2 0x17A4 JUMP JUMPDEST PUSH1 0x0 DUP3 NOT DUP3 GT ISZERO PUSH2 0x1B08 JUMPI PUSH2 0x1B08 PUSH2 0x1BF9 JUMP JUMPDEST POP ADD SWAP1 JUMP JUMPDEST JUMPDEST DUP2 DUP2 LT ISZERO PUSH2 0x1B22 JUMPI PUSH1 0x0 DUP2 SSTORE PUSH1 0x1 ADD PUSH2 0x1B0E JUMP JUMPDEST POP POP JUMP JUMPDEST PUSH1 0x0 PUSH1 0x40 DUP3 CALLDATASIZE SUB SLT ISZERO PUSH2 0x1B37 JUMPI DUP1 DUP2 REVERT JUMPDEST PUSH1 0x40 MLOAD PUSH1 0x40 DUP2 ADD PUSH8 0xFFFFFFFFFFFFFFFF DUP3 DUP3 LT DUP2 DUP4 GT OR ISZERO PUSH2 0x1B5B JUMPI PUSH2 0x1B5B PUSH2 0x1C0F JUMP JUMPDEST DUP2 PUSH1 0x40 MSTORE DUP5 CALLDATALOAD SWAP2 POP DUP1 DUP3 GT ISZERO PUSH2 0x1B6F JUMPI DUP4 DUP5 REVERT JUMPDEST PUSH2 0x1B7B CALLDATASIZE DUP4 DUP8 ADD PUSH2 0x1480 JUMP JUMPDEST DUP4 MSTORE PUSH1 0x20 DUP6 ADD CALLDATALOAD SWAP2 POP DUP1 DUP3 GT ISZERO PUSH2 0x1B90 JUMPI DUP4 DUP5 REVERT JUMPDEST POP PUSH2 0x1B9D CALLDATASIZE DUP3 DUP7 ADD PUSH2 0x1480 JUMP JUMPDEST PUSH1 0x20 DUP4 ADD MSTORE POP SWAP3 SWAP2 POP POP JUMP JUMPDEST PUSH1 0x1 DUP2 DUP2 SHR SWAP1 DUP3 AND DUP1 PUSH2 0x1BBD JUMPI PUSH1 0x7F DUP3 AND SWAP2 POP JUMPDEST PUSH1 0x20 DUP3 LT DUP2 EQ ISZERO PUSH2 0x1518 JUMPI PUSH4 0x4E487B71 PUSH1 0xE0 SHL PUSH1 0x0 MSTORE PUSH1 0x22 PUSH1 0x4 MSTORE PUSH1 0x24 PUSH1 0x0 REVERT JUMPDEST PUSH1 0x0 PUSH1 0x0 NOT DUP3 EQ ISZERO PUSH2 0x1BF2 JUMPI PUSH2 0x1BF2 PUSH2 0x1BF9 JUMP JUMPDEST POP PUSH1 0x1 ADD SWAP1 JUMP JUMPDEST PUSH4 0x4E487B71 PUSH1 0xE0 SHL PUSH1 0x0 MSTORE PUSH1 0x11 PUSH1 0x4 MSTORE PUSH1 0x24 PUSH1 0x0 REVERT JUMPDEST PUSH4 0x4E487B71 PUSH1 0xE0 SHL PUSH1 0x0 MSTORE PUSH1 0x41 PUSH1 0x4 MSTORE PUSH1 0x24 PUSH1 0x0 REVERT JUMPDEST PUSH1 0x0 DUP2 CALLDATALOAD PUSH2 0x1C32 DUP2 PUSH2 0x1DF3 JUMP JUMPDEST SWAP3 SWAP2 POP POP JUMP JUMPDEST PUSH1 0x0 DUP2 CALLDATALOAD PUSH2 0x1C32 DUP2 PUSH2 0x1E08 JUMP JUMPDEST PUSH1 0x4 DUP3 LT PUSH2 0x1C63 JUMPI PUSH4 0x4E487B71 PUSH1 0xE0 SHL PUSH1 0x0 MSTORE PUSH1 0x21 PUSH1 0x4 MSTORE PUSH1 0x24 PUSH1 0x0 REVERT JUMPDEST PUSH1 0xFF NOT DUP2 SLOAD AND PUSH1 0xFF DUP4 AND DUP2 OR DUP3 SSTORE POP POP POP JUMP JUMPDEST DUP2 CALLDATALOAD PUSH1 0x1E NOT DUP4 CALLDATASIZE SUB ADD DUP2 SLT PUSH2 0x1C8A JUMPI PUSH1 0x0 DUP1 REVERT JUMPDEST DUP3 ADD DUP1 CALLDATALOAD PUSH8 0xFFFFFFFFFFFFFFFF DUP2 GT ISZERO PUSH2 0x1CA3 JUMPI PUSH1 0x0 DUP1 REVERT JUMPDEST PUSH1 0x20 DUP2 CALLDATASIZE SUB DUP2 DUP5 ADD SGT ISZERO PUSH2 0x1CB6 JUMPI PUSH1 0x0 DUP1 REVERT JUMPDEST PUSH2 0x1CC0 DUP5 SLOAD PUSH2 0x1BA9 JUMP JUMPDEST PUSH1 0x0 DUP1 PUSH1 0x1F DUP6 GT PUSH1 0x1F DUP5 GT DUP2 DUP2 OR ISZERO PUSH2 0x1CDF JUMPI PUSH1 0x0 DUP10 DUP2 MSTORE PUSH1 0x20 SWAP1 KECCAK256 SWAP3 POP JUMPDEST DUP1 ISZERO PUSH2 0x1D0D JUMPI PUSH1 0x1F DUP8 ADD PUSH1 0x5 SHR DUP4 ADD DUP7 DUP9 LT ISZERO PUSH2 0x1CF9 JUMPI POP DUP3 JUMPDEST PUSH2 0x1D0B PUSH1 0x1F DUP8 ADD PUSH1 0x5 SHR DUP6 ADD DUP3 PUSH2 0x1B0D JUMP JUMPDEST POP JUMPDEST POP DUP1 PUSH1 0x1 DUP2 EQ PUSH2 0x1D43 JUMPI PUSH1 0x0 SWAP5 POP DUP7 ISZERO PUSH2 0x1D2A JUMPI DUP6 DUP5 DUP10 ADD ADD CALLDATALOAD SWAP5 POP JUMPDEST PUSH1 0x1 DUP8 SWAP1 SHL PUSH1 0x0 NOT PUSH1 0x3 DUP10 SWAP1 SHL SHR NOT DUP7 AND OR DUP10 SSTORE PUSH2 0x1D98 JUMP JUMPDEST PUSH1 0x1F NOT DUP8 AND SWAP5 POP DUP3 DUP5 JUMPDEST DUP7 DUP2 LT ISZERO PUSH2 0x1D6E JUMPI DUP10 DUP7 ADD DUP9 ADD CALLDATALOAD DUP3 SSTORE SWAP5 DUP8 ADD SWAP5 PUSH1 0x1 SWAP1 SWAP2 ADD SWAP1 DUP8 ADD PUSH2 0x1D4D JUMP JUMPDEST POP DUP8 DUP7 LT ISZERO PUSH2 0x1D8D JUMPI PUSH1 0x0 NOT PUSH1 0xF8 DUP10 PUSH1 0x3 SHL AND SHR NOT DUP8 DUP7 DUP12 ADD ADD CALLDATALOAD AND DUP2 SSTORE JUMPDEST POP PUSH1 0x1 DUP8 PUSH1 0x1 SHL ADD DUP10 SSTORE JUMPDEST POP POP POP POP POP PUSH1 0x1 DUP5 ADD SWAP3 POP PUSH2 0x1DB7 PUSH2 0x1DB1 DUP3 DUP8 ADD PUSH2 0x1C38 JUMP JUMPDEST DUP5 PUSH2 0x1C45 JUMP JUMPDEST POP POP PUSH2 0x1DEE PUSH2 0x1DC8 PUSH1 0x40 DUP6 ADD PUSH2 0x1C25 JUMP JUMPDEST DUP3 DUP1 SLOAD PUSH2 0x100 PUSH1 0x1 PUSH1 0xA8 SHL SUB NOT AND PUSH1 0x8 SWAP3 SWAP1 SWAP3 SHL PUSH2 0x100 PUSH1 0x1 PUSH1 0xA8 SHL SUB AND SWAP2 SWAP1 SWAP2 OR SWAP1 SSTORE JUMP JUMPDEST POP POP POP JUMP JUMPDEST PUSH1 0x1 PUSH1 0x1 PUSH1 0xA0 SHL SUB DUP2 AND DUP2 EQ PUSH2 0x1413 JUMPI PUSH1 0x0 DUP1 REVERT JUMPDEST PUSH1 0x4 DUP2 LT PUSH2 0x1413 JUMPI PUSH1 0x0 DUP1 REVERT INVALID LOG2 PUSH5 0x6970667358 0x22 SLT KECCAK256 DELEGATECALL 0xD0 0xC3 PUSH32 0x2004DD0DB2F1F2A2E76492B1C0CCCE559E7706C2EE393CFE4C1A5B64736F6C PUSH4 0x43000804 STOP CALLER "
        },
        "methodIdentifiers": {
          "addLabResult(uint256,bool)": "e7970342",
          "addLot(uint256[])": "cf23b377",
          "addMilkBatch((string,string))": "bab5e3d5",
          "addParticipant((string,uint8,address))": "dfc2e251",
          "addStep(uint256,string,(string,string))": "2f9d3afb",
          "administrator()": "f53d0a8e",
          "changeParticipantRole(address,uint8)": "c0e04539",
          "getLot(uint256)": "ab995d12",
          "isAdministrator(address)": "0a2eb301",
          "isBasicParticipant(address)": "2a83aada",
          "isLaboratory(address)": "27706584",
          "isMilkProducer(address)": "633342fe",
          "lots(uint256)": "f1648e84",
          "milkBatches(uint256)": "4e266aea",
          "participants(address)": "09e69ede",
          "removeParticipant(address)": "668a2001",
          "steps(uint256)": "7217e0b9",
          "totalBatches()": "69ff6abb",
          "totalLots()": "360f277b",
          "totalSteps()": "6931b3ae"
        }
      }
    }
  }
}